:040000006F00106B12
:10000400000000000000000004400100D0020020B5
:10001400A9BDF9F304400100000000000000000045
:100024000440010004400100000000000000000042
:100034000440010000000000044001000000000032
:100044000000000004400100000000000440010022
:1000540004400100044001000440010000000000CD
:100064000440010000000000000000000440010002
:100074007A03002004400100044001000440010010
:1000840000000000044001000000000004400100E2
:100094009307000C01116314F50493078008F3B768
:1000A400078093F787083EC00F100000B717004081
:1000B400130770052380E704130780FA2380E704FD
:1000C4000F10000098271367070C98A723800704D4
:1000D4008247F3A707800F10000005618280B717DD
:1000E4000040B827118B69EB83C6E7041307800827
:1000F40093F6F60F733607801376860832C20F1014
:1001040000001308700523800705930580FA2380F7
:10011400B7040F10000003C6E704136636002387F4
:10012400C704B02713664600B0A72380070412460D
:10013400732606800F10000090271376F60F73378E
:100144000780137787083AC40F100000238007053F
:100154002380B7040F10000098271367070C98A793
:1001640023800704A247F3A707800F100000A547C8
:100174000100FD1793F7F70FE5FF93078008F3B726
:10018400078093F787083EC60F100000B71700409A
:10019400130770052380E704130780FA2380E7041C
:1001A4000F10000090A72387D70423800704B247C9
:1001B400F3A707800F1000009377050C13070004C2
:1001C4006399E70893078008F3B7078093F78708D4
:1001D4003EC80F100000B7170040130770052380B6
:1001E400E704130780FA2380E7040F100000B82700
:1001F400854613670701B8A737270040A303D780B4
:100204008346578093E60601A302D7802380070420
:10021400C247F3A707800F10000093078008F3B7C5
:10022400078093F787083ECE0F100000B7170040F1
:10023400130770052380E704130780FA2380E7047B
:100244000F1000001375F50F88A723800704F247E9
:1002540049B59377F5019DCF93078008F3B70780DD
:1002640093F787083ECA0F100000B7170040130722
:1002740070052380E704130780FA2380E7040F1036
:100284000000372700408946A303D7802380070452
:10029400D24741B793078008F3B7078093F78708DD
:1002A4003ECC0F100000B7170040130770052380E1
:1002B400E704130780FA2380E7040F1000003727B0
:1002C40000409D46A303D78023800704E24791B7EB
:1002D40041118146014681451145971000E0E780B0
:1002E400C07813078008F337078093F787083EC464
:1002F4000F100000B7170040130670052380C704D1
:10030400930680FA2380D7040F100000FD55CEB762
:1003140023800704A245F3A505800F10000073375E
:100324000780137787083AC60F1000002380C7049C
:100334002380D7040F10000003C767041367170056
:100344002383E70423800704B247F3A707800F1031
:10035400000001A04111B7170040985F3AC6945FAE
:100364003247E39CE6FE324541018280B7E700E074
:100374003707001023A0E7208280B7170040130737
:1003840000032388E702854723A0F18A7300203005
:10039400411106C63521FDBF230304801547A287FA
:1003A4002303E480010001002302A48003C76780C3
:1003B40062076187E34C07FE2382A7802287834775
:1003C4006780E207E187E3CC07FE82802303048091
:1003D40015472303E480010001002302A4808280E6
:1003E40083076480E3CE07FE2303048082808307AF
:1003F4006480E3CE07FE03454480828083076480E3
:10040400E3CE07FE2302A4808280411126C44AC29F
:100414004EC006C61377F50BAD47AA892E899544BD
:100424006306F70019455D37653F8D444E85793F76
:10043400FD59FD1463983401B240A2441249824923
:1004440041018280135509011375F50F453F2209B7
:10045400CDB7011126CC06CEB70408005137154597
:10046400B537713769372AC6A53F324593771500EA
:1004740089EB136515001375F50FF240E24405612D
:100484008280FD14E9FC0145CDBF411106C6B717B2
:100494000040130770052380E704130780FA2380C4
:1004A400E70403C747041305F00F1367070E2382FD
:1004B400E70491472303F480C535B24041010DB7E9
:1004C400011126CC4ACA4EC852C606CE2A89AE8924
:1004D400B284554A5D3F91E82137F240268552495E
:1004E400E244C249324A05618280CA850945313FE6
:1004F400910903A7C9FF91472320E480030764807F
:10050400E34E07FE23034481FD17EDFBFD1411099F
:1005140081C49377F90FE9FF2D3F55FDFD5475BF55
:10052400011126CC4ACA4EC852C656C45AC206CE77
:100534002A89328A8D49913FC164C16A056B9387C8
:10054400F4FFB3F7270199E363719A02FD199180CF
:10055400E39709FE71350145F240E2445249C2492C
:10056400324AA24A124B056182801305800D6388CA
:100574005401130500026384640113051008CA853D
:100584006935C13D09C52699330A9A4075BF7D5521
:10059400E1B7011106CE26CC4ACAB2844EC82AC697
:1005A4002E89E5353245FD14FD59AA852D45B13D09
:1005B400639A34013535F24026855249E244C249F2
:1005C400056182802D3593F7340091EB83260480F6
:1005D4000327090093074900E39EE6FC3E89FD14C6
:1005E400C1BF011106CE2AC64D353245C533F2408E
:1005F4000561FDB3011106CE26CC4ACA4EC852C6C7
:10060400AA8956C42E895135B7050400B3E5B9004B
:100614002D45E53B81448D4A214AD13B63965401E3
:10062400832704802320F9008504E39844FF83276B
:10063400048013972901635C07002312F900F24038
:10064400E2445249C249324AA24A056151BB2322BB
:10065400F900F5B7411106C626C44AC24EC0AE8998
:100664002D3581451305B0044D33BD447D594133C7
:1006740093F77400CE9703C70700FD14398D2380C8
:10068400A700E39624FFB240A244124982494101E3
:1006940081BB411106C6D53B13056006053B893372
:1006A400130590092533B24041011DBB411122C4F9
:1006B40006C69727000083A7278C1714000013048D
:1006C400E48691C782971C40AA971CC021A083A7E7
:1006D400818BEDFB0840B74703009387D73F330571
:1006E400F502B7A72600938737ECB2403E9508C0C1
:1006F400224441018280B7E700E09843B706200016
:1007040023A0D718758F0F10000001C599C1814728
:1007140011E6B7E700E023A0E7108280B386F50076
:1007240003C80600B306F500850723800601E31716
:10073400F6FEC5B7411126C2B7E400E022C48040EA
:10074400B706200006C6758C23A0D4180F1000002D
:1007540011C111EAB7E700E023A08710B240224498
:10076400924441018280971000E0E780608123A0D9
:100774008410EDB737E700E01C43B70620002320C0
:10078400D718F58F0F10000001C599C1014711EA70
:1007940037E700E02320F710054582800507E309C9
:1007A400E6FE3308E500B386E5000348080094221A
:1007B400E306D8FE37E700E02320F71001458280E6
:1007C400797122D406D626D24AD04ECE52CC56CAFD
:1007D4005AC85EC662C41384018B1C40D5E79714C3
:1007E4000000938464751389018C032709009C20FD
:1007F40094300146B3A5E7208E21C9C911C29CA03B
:100804008820636CD50897170000238707721C4063
:10081400F1E79389818B83A70900E9C3138AC18A0D
:1008240003240A0045CC971B0000938B2B7683A7E7
:100834004B0037C9C901014B9CC41309F937971AF6
:100844000000938A6A713E20CDEB5C4463140B0A6A
:100854002320FA00032CC40022850123628465F45A
:100864009717000083A78771B5CB2254B2509254D6
:100874000259F249624AD24A424BB24B224C456178
:10088400172300E06700C3A0829781BF850793F711
:10089400F70F0546E3E0D7F69DB73327E5200E238F
:1008A4002310070097170000239B076883A7C18BB9
:1008B400B347F5209C4382979C2083260900FA20A5
:1008C400B3A6D72092223377E540518F9AA299C3D9
:1008D40085079CA098209C30E377F7F2B25022540D
:1008E40092540259F249624AD24A424BB24B224CC8
:1008F400456182802326FB00B1BF83A7090082974C
:100904001C443307F5406376F50003A74B001D8FA5
:100914002A976369E9022E200820974001E0E780C6
:10092400A0935C409DD3104483A64B00B2973E87AE
:1009340063E4C70063E4D7003387D74018C4228B2D
:10094400404431BF03A74A027DDB63E9A702338534
:10095400A7401C2099EF03C76A0183A64B005117D7
:10096400B307A7003E8563E4E70063E4D70033855B
:10097400D7409C44E375F5FC88C4D1B703A74B006A
:10098400BA97F1B7B7C700401387C720144313962B
:10099400264910C30F1000009387872617150000FF
:1009A4000325C55A9C436A0514C393C7F7FF99836B
:1009B4005D8D8280411126C293840190984006C6C1
:1009C40022C43C4393D76748B1C3930700063CC392
:1009D4009717000083C7876893F70704171400006C
:1009E4001304C46799CB9717000083A7275A8297EB
:1009F40048C41C2093F7F70B1CA01E2481CB03A72B
:100A040081917CD397170000239E076498403C4350
:100A140093D7474899C7C1473CC383A7819123A271
:100A2400070603A7819F5C4393D7174899C32322E2
:100A34000700B2402244924441018280A53F7300E2
:100A4400203083A6819117170000130727611C2308
:100A5400858B91E71C33858B99E3FC52EDFB8280F7
:100A6400971600009386464FDC5285C7B7E700E02F
:100A74003707200023A0E728B7F700E0938707D0C3
:100A8400984B6D9B98CB984B1367870398CB730057
:100A9400501097170000A383075C138781911C43B0
:100AA400054690C3DC5299CBB7F600E083A706D184
:100AB40093E7870023A8F6D07300501018439716C5
:100AC40000009386A6599C22858B99E37C53E5FF0D
:100AD40082801431AA871387260089CA03A68191CC
:100AE400304A1356564819C21387660093063700D6
:100AF400BE969022054805451376F607631C060347
:100B040081C53E97382398A188330DC583A7819169
:100B1400BC4B014593D7574891CF9C22054793F688
:100B2400F7066398E6009397476063D50700394555
:100B34008280194582800111971700002381075292
:100B44004AC897170000A38C07501719000013090F
:100B5400A9408327490222CC06CE26CA4EC62A843F
:100B64002E85B28585C7B7E700E03707200023A0AC
:100B7400E728B7F700E0938707D0984B6D9B98CB95
:100B8400984B1367870398CB73005010854793895C
:100B94000190938481916315F4060146973001E036
:100BA400E780E07D83A7090098409C43A1838D8B57
:100BB400A9E7930760197CD38327490299CB37F7B8
:100BC40000E0832707D193E787002328F7D0730039
:100BD4005010944017170000130747483C23858B97
:100BE40091E73C33858B99E3FC52EDFBF240624480
:100BF400D2444249B249056182809307E01B65BF34
:100C0400973001E0E780007183A709009843131728
:100C1400872998C3D85B719BD8DB59FC97170000D0
:100C2400A38E07429C40094798C379B783A7819153
:100C34009847D447758FB706040098C7F98E91CAB0
:100C4400FD56B4D7171600001306062F544A85061E
:100C540054CA9376870095C29716000083C626402F
:100C640093E6160017160000230BD63E03A6019048
:100C7400545AF19A93E6160054DA9376170095C203
:100C84009716000083C6963D93E6160017160000DB
:100C9400A306D63C03A60190545AF19A93E6160093
:100CA40054DA9376670085CE118B03A601909716CC
:100CB40000009386A63A59C3184221830D8B25EF71
:100CC400D84A183321E313077006D8CF9C2293E740
:100CD40017009CA25C5AF19B93E717005CDA83C768
:100CE4004191A5CB238A019083A70191A9CF4111FA
:100CF40006C6829783C7419199E323A80190B24025
:100D040041018280AC4B93F5050281C5130750075E
:100D14006DBF85456315B7001307B0067DB78945D8
:100D24006315B7001307F0064DB78D45E310B7FE02
:100D34001307300759BF1307600741BFBC3293E75D
:100D44001700BCB241BF83C7419181E723A801903A
:100D540082808280E13D73002030B7E700E003A881
:100D640007003707200023A0E7183378E8000F10A6
:100D7400000003AE019A03A38199F287814663F6CA
:100D8400670883A807006367F50863E5A808138765
:100D94008700636CE506F223216705076317E60005
:100DA4001386F18E1822050718A297150000938563
:100DB400A518D223DA212393070032973347070873
:100DC400DAA16381C70303A5C199630DF500EA2283
:100DD40011E9DE2223A0160121073E962106D2A2A4
:100DE400DAA1B68798436302670283A6C199630EAA
:100DF400D700762399EAD62352231843A106B29644
:100E0400D6A398C3DE21A107DEA1B7E700E023A0A3
:100E140007118280BE86C6879DB7938515029717F2
:100E2400000083A7E72495859843FD1518C1D8438E
:100E340058C1984718C5D84758C5984B18C9D84BB6
:100E440058C9984F18CDD84F58CD91C513050502F0
:100E540093870702D1BF828003A781913C5BFDFF8A
:100E6400010001008280011122CC26CA06CE2AC4C8
:100E74002EC61714000003246436854419E0014586
:100E84000DA09C841830858B6304F7000044FDB7E3
:100E940019469305A10013052400EFF0BF8DE31755
:0C0EA40095FEF2406244D2440561828059
:100EB00097110020938101871721002013018114CD
:100EC0001305400097F5FF1F9385C51317060020F3
:100ED000130606FE63FAC5008322050023A0550011
:100EE00011059105E3EAC5FE174501001305454EBE
:100EF00097050020938505FC1386018963FAC500D8
:100F00008322050023A0550011059105E3EAC5FEE3
:100F100013850189971500209385052E6377B50009
:100F2000232005001105E36DB5FE93025002739076
:100F300002BC8D42739042808542739012BC930232
:100F400080087390023097F2FF1F9382A20B93E206
:100F500032007390523097120000938222AB73904C
:100F60001234730020302A8309CA838305002300CA
:100F700073007D16050385056DFA82802A8311C6EC
:100F80002300B3007D16050365FE828037170040FD
:100F90008347E70412054111BD8BC98F93F7F70F03
:100FA00093068008F3B6068093F6860836C60F10BF
:100FB0000000930670052300D704930680FA2300EF
:100FC000D7040F1000002307F70423000704B247DB
:100FD000F3A707800F10000041018280011126CA8B
:100FE00006CE22CC8947B314A02863F9A700954701
:100FF00063EAA70A93042500B3149028B7170040AA
:1010000003D70705B166558F2398E70413078008B7
:1010100073370780137787083AC60F10000013074D
:1010200070052380E704130780FA2380E7040F107C
:10103000000003C737051375F50F13670708A38969
:10104000E704A389A70403C7370513670702A38929
:10105000E70423800704B247F3A707800F100000BE
:1010600081470146B716004003D70605131757609E
:101070006352070403D7060583C626051394870029
:10108000931727013694C9833A043E94C12C3354F4
:101090009402F240D24433558502624423A8A188C9
:1010A00005618280994793040040E309F5F49304B5
:1010B000F07FA9B703C726059375F70F6373C700C1
:1010C00085072E8655B741113A8E2A838148930EA3
:1010D000407E130F0019930F400663EF6E14130741
:1010E00000193377E502854E0D4F994FFD4263E1BC
:1010F000BE1861477D1603A501894696AA85B3F6F9
:10110000E602130780703387E602F946330EDE02EB
:1011100093D61700858B7297369791E38145B30775
:10112000A602A166FD161306302A13D8F700F58F24
:10113000B387C7021166B385A5023307A702B2952C
:1011400013F6F71F1E06BD81A583F98EB3A6C62030
:101150003D83AE96BA9713D70601BA972D6713074A
:10116000078C33D6E702B3C6060833F7E702429688
:101170004207558FB716004083C7F60293F707085A
:10118000DC838C8383C7F60293F70708E396F5FEAA
:101190009C83B71600406381071293078008F3B75A
:1011A000078093F787083EC40F100000B717004070
:1011B000930670052380D704930680FA2380D70412
:1011C0000F100000D0DB83C6170393E60608A38840
:1011D000D70223800704A247F3A707800F1000005F
:1011E0001166B71700407D16D45BCC5FAD8EF18ED3
:1011F000E5FE93068008F3B6068093F6860836C6A9
:101200000F100000930670052380D704930680FA20
:101210002380D7040F100000D8DB03C71703136720
:101220000704A388E70223800704B247F3A70780D7
:101230000F100000410182807D133377E303130810
:10124000E01601CF3377F3031308D01619C71378CC
:101250003300133818001308D816C298BDBD13F810
:101260001500F91563FBBF029305E801AE989A8556
:101270001383F5FFE395E5FF854501CF130840068D
:10128000337805038145630608009375350093B5EF
:101290001500F105AE989A8599BDB3850241DDBF71
:1012A00083C7F60293F70708DC838C8383C7F602B3
:1012B00093F70708E396F5FE9C83FDD3F9BD0D0671
:1012C000719A81473307F5006393C7008280144306
:1012D0003387F500910714C3F5B7914763ECB70462
:1012E000972701009387474AB3C5F52098413E9759
:1012F000B71700409387470B028794433717004086
:10130000B3F6A64094C39306070B9C42B3F7A740DD
:1013100019A8944337170040B3F6A64094C3930628
:10132000070B9C42C98F9CC29307070A98433377E7
:10133000A74098C38280944337170040C98ED9B71D
:1013400098433377A74098C3B71700409387070A9D
:101350009843498FF9BF9843498FF5B7B7170040B5
:1013600098279306000C1377070C6315D70003A585
:10137000018982809827930600041377070C631075
:10138000D702942713070002FD8A99C298277D8B04
:101390003745C323130505603345E5028280942752
:1013A00013070002FD8A99C298277D8B3755E80103
:1013B00013050580D5B7B7F700E0884782803285EE
:1013C000814737370040A14663C3A70082800346A8
:1013D000B740E30ED6FE3386F500102285072304BE
:1013E000C740DDB7970600209386C6B3AA87884218
:1013F00017170020130747E0AA9763E9E7000A8759
:10140000130707FC6364F7009CC282807D558280CD
:10141000411122C406C62A8491372947B307E50241
:10142000B2408D83B3D7870222449507B3D7E70232
:1014300037370040B3C707082316F74041018280C1
:10144000716541111305052006C6D937B73700402D
:10145000130710F82381E7400D47A381E7401307E6
:101460000004A380E74005472387E740B2404101DD
:101470008280371700403E2FB3C7070893F707FC59
:10148000B3C707083EAF09C93E2F8E055D8ED18DCB
:10149000B3C505082EAF82808280B28741111396B2
:1014A0002500BE8506C6213DB2400145410182802E
:1014B000011122CC26CA939625002A84B284AA85DB
:1014C0000146054506CE36C6792BB2462686A2854C
:1014D0000945512BF2406244D244014505618280A6
:1014E0005D71A2C486C62E849397556063DC0700A5
:1014F000EF00E07711C1D1251315F468B6402644FA
:101500006161828093F7150013C51500E5FB8967BB
:10151000ED8FA1C3EF40D04A1945C934AA8523AE47
:10152000A1880A85F92251468A8568102D3C6810E9
:10153000EF10E01AD52437F602002392A18A130691
:1015400006E0896503C58189EF0070241315D4680E
:1015500075B711656D8D5DD1172501001305052443
:10156000EF10610813060064916503C58189EF00DF
:1015700010221315E46859B75D715D469725010087
:1015800093850522172501001305454E86C6A2C482
:1015900097F0FF1FE780401E01E9172501001305A2
:1015A000A521EF10410401A0B7F700E023A4070034
:1015B000795798CB3D4798C393078008F3B70780C6
:1015C00093F787083EC00F100000B71700401307BD
:1015D00070052380E704130780FA2380E7040F10C7
:1015E0000000B847B70600C1FD16758FB706000E9C
:1015F000558FB8C7238007048247F3A707800F10D1
:10160000000097F7FF1F9387A76223AAF1881307AB
:1016100000F8B7E700E0A38AE740130640038145DE
:10162000680097F0FF1FE78020119707002093873D
:10163000A7B005643EC6930704E0FC80E17793C73A
:1016400027812310F102B7B703003ECAB707010391
:10165000938707103ECCED47FC868547230FF100AA
:10166000970700009387A7E33EDCB7F503009707D1
:101670000000938727E43EDE8146970700009387AA
:10168000C7D35000E10519453ED6F12E19464C004E
:1016900013053102C938B24791C7BC801304F4BFA7
:1016A0006363F40001A06800EF00F05DAA8501C942
:1016B0001725010013058511EF00115F01A0B64049
:1016C000264461618280411117050000130585E100
:1016D00006C622C4EF0090581384818908A02D28E3
:1016E00008202244B24013060032896541016F0090
:1016F000100A17F7FF1F130727C618C13707C0A81E
:1017000058C105671307479C3AA517F7FF1F130732
:1017100027C60EA518C98280397126DA06DE22DCBA
:101720004AD84ED652D493048008F3B7048093F776
:1017300087083EC20F10000037140040930970055F
:1017400023003405130980FA230024050F1000003C
:101750008347F40293E71700A307F402230004046D
:101760009247F3A707800F1000001945EFF01F877D
:10177000138AC189AA852320AA0017250100130511
:10178000E506EF0071528146714685458147014764
:101790001305507E0D3A83570A0017F7FF1F1307F2
:1017A000A7BB3AC6FC8285679387479C3707C0A8CA
:1017B000FC83680097F7FF1F938787BB3AC83ECE2C
:1017C000EF001075F3B4048093F4840826C40F105E
:1017D000000023003405230024050F100000010041
:1017E00001008347140393E70702A308F4022300D0
:1017F0000404A247F3A707800F100000F2506254C0
:10180000B7E700E03707001023A0E710D254425991
:10181000B259225A21618280411103A5018906C66D
:1018200022C426C24AC0EF00114317F9FF1F130953
:1018300069722A86AE86032509008325490017F4BC
:10184000FF1F1304A471EF00410D10405440EF003E
:10185000A16310405440EF0021632A86AE86032521
:10186000090083254900EF00410BAA842E842A86B3
:10187000AE86032509008325490017F9FF1F1309C8
:10188000E96EEF00810997F7FF1F9387A76D9043DB
:10189000D443EF00615F0326090083264900EFF07F
:1018A0007017EF00F12E9307850CB3C707081305D7
:1018B000006433F5A70AEF0011332686A286EF00F5
:1018C000A15C0326090083264900EFF0B014EF0065
:1018D000312CB2402244334505089244024941016B
:1018E0008280797117250100130545F122D406D6AF
:1018F0002E84EF00713B1375140025C117250100DC
:101900001305C5F0EF00314E0146814517F5FF1F65
:1019100003458561EF709022AA852AC6172501002C
:101920001305C5F2EF005138B24595C517250100E2
:10193000130585F4EF0051379305F1011305D030FD
:10194000EF70703809E98345F1011725010013058F
:1019500025F5EF00713513451400B250225445614E
:101960008280011117250100130545F506CE22CC12
:1019700026CAEF005147170500001305C5F6EF0012
:10198000F02D97F4FF1F9384245AAA8588A0172569
:101990000100130525F4EF0031311725010013056F
:1019A000E5F4EF0051442C0013054030EF70B031E6
:1019B0002A84AA8517250100130545F5EF00D12ECD
:1019C0000DEC034881009C841885948510868C86D4
:1019D000172501001305C5F5EF00112D172501008E
:1019E000130545FBEF00314088208545EF20910627
:1019F000F2406244D244056182801725010013053C
:101A000065F6EF00513ED9BF411122C437140040A2
:101A10001E2C71777D17F98F06C61EAC1945EFF0A5
:101A2000EFD61305600497E0FF1FE780A066A1478B
:101A30001304840B1CC08D452145EFF01F8A01461D
:101A4000814505453D34ED3A172501001305050292
:101A5000EF00713915368539EF70D032193797F0AC
:101A6000FF1FE780209301112A8706CE2E8526CC02
:101A7000B2854ACA368622C637240040B7E700E05E
:101A8000FD5603A90700C44323A0D71823A2D718E3
:101A90009307F7FF93F7F70F894663E0F60AB71746
:101AA000004083C75704B706040093F7070299E381
:101AB000B7C60300F9576375D5043308C50063E161
:101AC000060589476314F704098297F0FF1FE78032
:101AD000609FAA8737170040930670052300D7043C
:101AE000930680FA2300D70483464704C18A230261
:101AF000D70437E700E02320271123229710324430
:101B0000F240E24452493E85056182808547631F69
:101B1000F7008567FD173E96E98F3E96FD777D8E2F
:101B20007D8D97F0FF1FE780E09F65B797F0FF1F5F
:101B3000E78060A69307150071BFB547631AF700E9
:101B40001305900B97F0FF1FE780E0A9814759B775
:101B5000B1476315F7001305B00AEDB7994763174E
:101B6000F70097F0FF1FE78020A9CDB79D47631BC3
:101B7000F70023A0050023A2050097F0FF1FE780D0
:101B8000A0ADE9B791476317F70097F0FF1FE78013
:101B900080B06DBF81471DDFF1572DBF23AC05FE1F
:101BA0001C4189E7010001000CC182803E8783A7A8
:101BB00087FFEDFF232CB7FE8280411122C437E45A
:101BC00000E026C204403707200006C6F98C232017
:101BD000E4180F10000009E9232094101545B240C5
:101BE00022449244410182800347E5FF9307F00FAE
:101BF0006306F700232094101145D5B797F0FF1F17
:101C0000E780E015014523209410D1BF411126C281
:101C1000B7E400E04AC003A90400B707200006C6E5
:101C200022C43379F90023A0F4180F10000009E54D
:101C300023A02411014535A09565938505D0C98D54
:101C40002A842105B3C5050833450508EF20110B8B
:101C500065D1FD572320050042A17CA123A02411BA
:101C60002105B2402244924402494101828041113F
:101C7000B7E700E026C284433707200006C622C427
:101C8000F98C23A0E7180F1000009386818A9042F8
:101C900001440147B28799EF19C8832784FF631174
:101CA000C4069CC2FD57232C04FE230FF4FEA1653D
:101CB000D1291DA083C5E7FF639DA50221C083270D
:101CC00084FF6315C4029CC2FD57232C04FE230F1E
:101CD000F4FEA165EF200158B24022852244B7E707
:101CE00000E023A09710924441018280232CF7FE4C
:101CF000E1BF11E03E8783A787FF71BF3E84E5BF48
:101D0000232CF7FE45B741114AC037E900E022C451
:101D100003240900B707200006C626C27D8C2320B5
:101D2000F9180F10000089E523208910154515A02A
:101D3000AA849707002083C737202E8563F5F40017
:101D4000854763EE9700953DB7E700E023A0871035
:101D50000D45B2402244924402494101828083A74A
:101D600085FF99E703C7E5FF9307F00F6308F700C6
:101D7000A935B7E700E023A087104DBF238F95FE5C
:101D80001385818A213DA1652685EF20A14C01455F
:101D9000232089107DBF23A4018A82802A8713F51E
:101DA000F50F2DC1411122C426C206C64AC013F444
:101DB0001500AE8419C0814709A88147A14685074F
:101DC000638AD70233D6F4487DDAB1463367F72009
:101DD0003307D70203A9418CB317F02833C407088F
:101DE0003A99832709000325490082972320090097
:101DF0002322090033459400B24022449244024910
:101E00004101828082800111B7E700E026CA844345
:101E10004AC83707200006CE22CC2A892E86F98CA4
:101E200023A0E7180F1000009305F00432C63345D5
:101E30000608EF20A16C2A8419C53246CA8597F09E
:101E4000FF1FE780808BF24022856244B7E700E005
:101E500023A097104249D2440561828041119375B5
:101E60007500014506C6B315B028B3C50508EF20B7
:101E7000811909C50845B240410182800145E5BF8D
:101E8000B7E700E09843B706200023A0D718758F66
:101E90000F1000009706002083C6160A637ED50047
:101EA00083A6018C3325D5201621B3F5B6400EA1AB
:101EB00023A0E7100145828023A0E7100D45828012
:101EC0007971B7E700E026D284433707200006D6B1
:101ED00022D44AD04ECE52CCF98C23A0E7180F1052
:101EE0000000930785FF93F7F70F1D47636BF70813
:101EF00031473307E50283A7418CBA979C43D1C38E
:101F00001D893315A028AE89B345050805452EC6A1
:101F1000EF20610F2A8929C9B2450545170A00201B
:101F2000130ACA06B13F83A7818B829783578A0021
:101F30002A8481463387370313060064B3B7370317
:101F400013050732B335E500BE95EFE01073B30714
:101F5000850083264A003E8763E4A70063E4D70038
:101F60003387D7402324E900B7E700E023A0971088
:101F70000145B250225492540259F249624A4561D5
:101F80008280B7E700E023A097100945DDB779719B
:101F900022D437E400E04AD003290400B707200028
:101FA00006D626D24ECE52CC56CA5AC85EC6337911
:101FB000F9002320F4180F1000009707002083C7B2
:101FC000B7F76376F50083AB818B63970B00B7E7B8
:101FD00000E023A0271199A0970A0020938A0AFB0A
:101FE00003AB4A00B74736FE938707C83E9B83D7AB
:101FF0008A002E8AAA84B385C702B2898146B3B704
:10200000C70213850532B335B50013060064BE95CB
:10201000EFE0B0666370AB02232024110145B2509B
:10202000225492540259F249624AD24A424BB24B6C
:1020300045618280829B83D78A002A8413060064CC
:10204000B38537038146B3B7370313850532B335FC
:10205000B500BE95EFE07062B307850003A74A00A4
:102060003E8463E4A70063E4E7003384E740D2855D
:102070002685EF10517901C900C5B7E700E023A01C
:102080002711054569BF93E504F04145B3C505082F
:10209000EF20C14611E99707002083A767EE85DB93
:1020A000A6851145829725B71387C18A1C4399EBF2
:1020B00008C32326050000C52311450104A12322DE
:1020C000050065BF3E87DC47F5FF48C7DDB779717E
:1020D000B7E700E026D284433707200006D622D493
:1020E0004AD04ECE52CC56CA5AC85EC662C466C2E8
:1020F000F98C23A0E7180F10000021CD2A892E8A21
:10210000B28AB6892144B14C138B418C414CB30B3C
:10211000940383270B00DE979C43A1EF9375740013
:1021200056860545B315B028B3C505088D3531C1B0
:1021300083270B00DE9723A0270123A24701638496
:10214000090023808900B7E700E023A0971001452C
:1021500021A023A097100945B2502254925402594D
:10216000F249624AD24A424BB24B224C924C4561F0
:1021700082800504E31D84F9B7E700E023A09710EF
:102180002145D9BF011126CAB7E400E04EC683A994
:10219000040022CC52C4B707200006CE4AC82A8ABF
:1021A0002E84B3F9F90023A0F4180F100000EF10EB
:1021B000916517090020130929D81DE1A2855285D0
:1021C000C131834709006380470523A034111945B5
:1021D000F2406244D2444249B249224A05618280B7
:1021E00023110500A2855285613983470900638662
:1021F000470123A034110145E1BF83576900C18F16
:102200002313F900FDB7835769005D8C2313890000
:102210006DBF01114AC837E900E022CC0324090050
:10222000B707200006CE26CA4EC67D8C2320F9189B
:102230000F100000BD4763E5A704B144B304950245
:102240009389418C83A70900A6979C4395CB9375EE
:1022500075000D81B315B028B3C50508253783A7D0
:1022600009000145A69723A0070023A20700232009
:102270008910F2406244D2444249B24905618280E9
:10228000B7E700E023A087100945E5B741114AC030
:1022900017090020130949CA0327890006C622C46A
:1022A00026C245C38346190003A6018C814763C03B
:1022B000D70A9706002083C6B6DA95479704002010
:1022C0009384C4D963EFD70683C74191BDEB17044C
:1022D00000201304A4CB544083A7818B631FD7062F
:1022E00082975440374736FE130707C83697B3071F
:1022F000A7003E8563E4E70063E4D7003385D74059
:10230000DC4889CB83A681929C463707CDFF7D1799
:10231000F98F9CC611E148409707002083A707C6A4
:10232000829719E5DC4891CFEF20F13BEF20513245
:10233000DC4881CB03A781921C47B7063300D58FB9
:102340001CC7B24022449244024941018280B3A595
:10235000C7208E21FDF5850799BF829783268900C6
:102360005840B387A6003E8563E4D700E3EAE7F868
:102370003385E74071B7411106C623AAA18A0295A9
:10238000B2409707002023A1A7BC014541018280EC
:1023900023ACA18A014582804111114681451385F4
:1023A000018B06C622C426C223A6018A23AA018A5B
:1023B00023AC018A97E0FF1FE78000381306000274
:1023C000814517050020130525B797E0FF1FE7801B
:1023D000A036EF70E023C147170400201304C4B5F2
:1023E0008545130500123CA09384418CEF20011118
:1023F00088C025C13020994781453306F60213066F
:10240000060C97E0FF1FE78020339C403820938420
:10241000C18B9387070C9CC0B347F72023A0F18C96
:10242000EFF07F97552E1C309840172601001306B9
:1024300066BFB3C6E72090C293862700850793F74F
:10244000F70FB3C7E72014B017070000130747952D
:1024500098C3B240224492444101828097060020F2
:10246000938686AD2A87BC228832637BF5001306EB
:10247000150083A7C18B90B2B347F52098C3828023
:102480001305F00F82801C41F1C7370700F07D8FE4
:10249000B706002089476310D70C5A21411122C486
:1024A00006C62A845DC319469305F00F5D05EF103B
:1024B000914605478D47630AE5081C4491C7585467
:1024C000994741C7185851C3130640038145170562
:1024D0000020130565A897E0FF1FE780E02513069D
:1024E0004003A28517050020130505A797E0FF1FED
:1024F000E780A02097070020938707A6DA2701E747
:1025000013070010DAA7F82719E30547F8A79A2B55
:1025100019E36D479AABF83719E30D47F8B7B82BB5
:1025200019E30547B8ABB83B19E3F837B8BBD82B6C
:1025300019E34947D8AB583801E713074006D8BB21
:10254000FD57238AF198893D8147B24022443E8558
:102550004101828089473E85828079714ECE9709FC
:1025600000209389A9A283A7090006D622D426D2E7
:102570004AD052CC829713090064B335250303D6A1
:1025800089008146170A0020130A0A9B32C63305C8
:102590002503EFE0900E83240A012A840145638617
:1025A000840232463305944063EF840003A549005A
:1025B0008146B335A9023305A902EFE0100CB30739
:1025C00095403385870023288A00B25022549254C4
:1025D0000259F249624A45618280011122CC0A8582
:1025E0002E844146971501009385051906CEEFE02C
:1025F0009F9718083324E420035704FFF2406244F5
:102600009707002083D7279937450F00BA971305FE
:1026100005243355F502056182809707002083D792
:10262000879751471D45637CF702794719456378C1
:10263000F7021307200315456373F7021307B0046D
:102640001145637EF700130740060D456379F700D7
:102650001307600909456374F70013B5B70F82804B
:10266000411122C426C22E84AA8406C6058C97E096
:10267000FF1FE780E003B327A402B2402244338562
:1026800097001375F50F924441018280411122C4D5
:1026900026C22E84AA8406C6058C97E0FF1FE78019
:1026A0002001B327A402B24022443385970033456A
:1026B0000508924441018280411122C426C22E8421
:1026C000AA8406C6058C97E0FF1FE78060FE3335BD
:1026D000A402B24022442695924441018280AA85F8
:1026E000170500201305858A184197E7FF1F938778
:1026F000A729630DF7004111514606C697E0FF1F59
:10270000E780A0FFB24001454101828005458280FB
:10271000411106C622C426C259C11C41AA850545DD
:10272000B5CBDC41A5CB9E25B5C7BE25A5C7514677
:10273000170500201305858597E0FF1FE780E0FB64
:1027400097070020238A0784970400209384048439
:10275000884017040020130424801D397C2899EF39
:102760008A249307807037460F003305F50213065D
:10277000062481468145EFE0407068A87828AD477F
:1027800063E4E700B1477CA817050000130525DDC9
:10279000DD360145B240224492444101828097F7E0
:1027A000FF1F23A5077A97F7FF1F9387277E17E759
:1027B000FF1F1307671D98C337873200FD561307A5
:1027C00027A1D4C398C797F7FF1F2387077CB7C7F4
:1027D000004023A4D7268DBF011122CC17F4FF1F80
:1027E00013048477084406CE26CA4AC801E9054581
:1027F000F2406244D2444249056182805C54E5DB88
:10280000185875D77000854582971844B247E30081
:10281000F7FE4A249305E00417F9FF1F1309C97155
:10282000EF10D14D232CA90079D152249305F00F3C
:10283000814497E0FF1FE78020F07C240326890174
:1028400063C1F402328597E0FF1FE78040510145E4
:1028500097F7FF1F23AE076E97F7FF1F23AC076E96
:1028600041BF4E241844B38795028981850433857E
:10287000E7001C5808C28297C9B701114EC697F9E4
:10288000FF1F9389696D83A7890022CC4AC852C46F
:1028900006CE26CA56C25AC02A8A2E843289638F2F
:1028A000071C03A7C902630E07101307F01F636C10
:1028B000A71097F4FF1F9384246883AA8401639769
:1028C0000A0803D5C9009565938515E0EF101143FB
:1028D00088CC2A867DC583D5C90083A7C90203A5F4
:1028E00089008981829783A7890083AA8401DCCC2F
:1028F00089476313FA08C1476315F40C83D7C900ED
:102900001147938707FCB3C7E702B3C75721B42326
:102910001307A0056393E60A9A236310470B938578
:1029200047004A85228697E0FF1FE78000DD9C4C28
:102930005685639D57110145F2406244D244424995
:10294000B249224A924A024B05618280D84CE38107
:10295000E7FA03D5C9009565938525E0EF10113A94
:10296000AA8A25C183D5C9002A8683A7C90203A5DF
:10297000890089818297ADBF8D47631CFA00C147EA
:102980006311F40483D7C900938747FDF19BD69761
:10299000BDBF91476318FA006315440383D7C9008C
:1029A000A117EDB793070010631DFA00A14763EA72
:1029B000870083D7C900C117D1BF9C4C5685639A45
:1029C000570B294595BF1D676377E508130705E099
:1029D00099463347D70283D6C90017FBFF1F130B55
:1029E000AB553307D702B30AF7008327CB016395B2
:1029F000570183248B018DE003D5C9009305E004C2
:102A0000EF10D12FAA8455DD83D5C90083A7C90251
:102A10002A8689815685829791451307A00593F5EB
:102A2000C50FB387B400B4236390E6049623639B79
:102A3000460391052286A6954A8597E0FF1FE78009
:102A4000C0CB83278B01E38897EE268597E0FF1F95
:102A5000E780E030CDB5A166F916E3E4A6F63307CA
:102A6000E54095BFAC3365BF83278B01E38B97F4BB
:102A7000268597E0FF1FE780802EA1B797F5FF1FFF
:102A800083A5054D9DDD91479306A00593F7C70FDC
:102A90003387F5003023E316D6F21223631B460179
:102AA00091072286BE954A8597E0FF1FE780E0C424
:102AB00059B53C33E1BF97F7FF1F9387E749984724
:102AC00021C7985B31C385466310D504411122C4E8
:102AD00017F4FF1F13044446104C06C615C2CE2738
:102AE000484C89810297084C97E0FF1FE780202718
:102AF00097F7FF1F23AE074497F7FF1F23AC074448
:102B0000B2402244410182808280011122CC17F41C
:102B1000FF1F130464444EC68329840026CA4AC892
:102B200052C406CE56C22A89AE84328A6385091AF7
:102B30001C5899EB2945F2406244D2444249B249BB
:102B4000224A924A056182805C54EDD79307F01FB8
:102B500063E0A70C97F9FF1F9389093E83A78901BA
:102B6000A9C7084483A7C901639AA70489476311C9
:102B7000F906C147E390F4FC5E241147938707FCF4
:102B8000B3C7E70203A78901B3C7E7201307A0056E
:102B9000B8A3239027012686D2851385470097E0A6
:102BA000FF1FE78080B5014579B74A249305E0040B
:102BB000EF10D11423ACA9004DF5ADBF4E245C54E9
:102BC00003A68901898182971C4423AEF90079BF4D
:102BD0008D47631DF900C147E39EF4F45A2413079F
:102BE00047FD83A78901719BBA974DB7914763173A
:102BF000F900E39124F55A242117E5B79307001053
:102C0000E31AF9F2A147E3E797F25A244117D1BF3B
:102C10009D676372F506930705E01947B3C7E7029E
:102C20005A2497FAFF1F938A2A31B387E702BE9985
:102C300083A78A01A1CB83A7CA01639E370503A599
:102C40008A0191471308A0059305F00F13F7C70FEA
:102C5000B306E500B022631D060583D80600B03236
:102C600063962805B307F64063C1970411072686CB
:102C7000D2853A952DB721677917E36DA7EAB30797
:102C8000F54079BF4A249305E004EF10310723ACE7
:102C9000AA0055F145B54E245C5403A68A018981EA
:102CA0004E85829723AE3A0159BF8EA2B28779BF73
:102CB0005224B38597009105130606FCE36CB6E633
:102CC00013863400719A1106B2972381060123906E
:102CD0002601BCB261BF97F9FF1F9389E92583A73D
:102CE00089019DCB03A5890191471308A005930590
:102CF000F00F13F7C70FB306E500B022631C0603FD
:102D000083D80600B03263972801B307F640E3DFAB
:102D100097F48EA2B287F1BF7C244A249305E00485
:102D20003305F50233450508EF10417D23ACA900BA
:102D300055F909B552246C24B385C5023386970032
:102D40001106E3E9C5DEADBF014582800145828001
:102D500003C7F18F814763E4E70001458280922138
:102D6000938645006314A6002E8582808507B6856C
:102D7000DDB71DC5411122C406C638219307D00F07
:102D80002A8463EBE7000E2128310147F9465D46AE
:102D9000EF80B028F9573EA0B24022444101828022
:102DA000828003C7F18F8147FD5663C3E7008280AD
:102DB00016A12301050085071105C5BF01458280C5
:102DC000938511819307000285469CA1FD572388B6
:102DD000F180A387F1802387F1802396D180239609
:102DE000018C23A4018C23A0018E23AE018C1386B9
:102DF0004181938741875CC22382018E97F7FF1F31
:102E00009387071A094718A298A398AB2380E70273
:102E10002388E7021387418694A7D0C794AFD8DBF5
:102E2000138501870D471386818693860185238C40
:102E3000E702C8C323950700D0CB239D0700CCCF62
:102E4000D4D3238407022395070223A60702239DD8
:102E5000070203A7018DD8DF97F7FF1F9387471855
:102E6000170700001307E70A23A00700D8C323A40D
:102E700007008280411106C6E13D09C52821B24004
:102E8000410182800145E5BF411122C426C24AC0EA
:102E900006C6AA842E893284653DAA8709E9416560
:102EA000CA857D157535AA87454581C786A3A0A328
:102EB0000145B2402244924402494101828015EF0B
:102EC00009483547639C0603011106CE22CC18221F
:102ED00010322206598E32C6B377F64095E3CC45C0
:102EE0002A842EC4413F32460147630DC500228526
:102EF0006244A245F240056141BF2D473A85828078
:102F000013070008F24062443A850561828083C855
:102F10000500094863900803DC4103C807009C339F
:102F2000A207B3E707010D6813082890639407010F
:102F3000894771B70545828001114EC606CE22CC65
:102F400026CA4AC89389F18003C709009307F00F86
:102F5000630DF7022A892945AE843284EFE01FCB46
:102F6000AA8505C59307100B1EA12302050002A523
:102F700062442311250166A1F24003C50900D24431
:102F80004249B24905616FE01FD8F2406244D24421
:102F90004249B24905618280411126C2AE8483A5AF
:102FA000018D22C406C62A84F135098909C9228502
:102FB0002244B240A685924441016F80F02DB24078
:102FC00022449244054541018280411122C426C217
:102FD0004AC006C6AA8413044500130945061E20EC
:102FE0009DC3084409C597E0FF1FE78040D72285AD
:102FF0003146814597D0FF1FE78000743104231AC2
:1030000004FEE31E24FDB2402244FD579EA0024967
:1030100092444101828083C6F18F83A7818D01474D
:103020006394E600014582808E23138647066394ED
:10303000A5003E85828005071377F70FB287CDB7CD
:10304000AA8703A5018E01C95A216314F700084518
:1030500082800841CDBF8280411106C6D53709C59F
:103060000845B240410182800145E5BF797122D413
:103070001384450026D24AD052CC5AC82E8A06D68E
:103080004ECE56CA5EC622892287014B81448146B4
:103090008147A145122355C6A5EE46233E23B2869D
:1030A000A697B3C70708050B3107E315BBFEBDC0E4
:1030B0009165938545702685EF104144AA8B39C9E7
:1030C0000C44D1C9814A8149522033853B0197D0B4
:1030D000FF1FE78080625E200844BE99B3C90908DB
:1030E00097E0FF1FE780A0C763980A003109854A6F
:1030F000832589004A84E9F9314681452285850A7C
:1031000097D0FF1FE780406363826A053109CDB71E
:10311000630ED6000145B250225492540259F2492E
:10312000624AD24A424BB24B456182803223E3135A
:10313000F6FE5223B294B297B3C40408B3C707088B
:103140009DB78547E3E567F70545F1B723267A0183
:1031500023149A00D5BF1309C400854A814949BF89
:10316000AA8703A5C18D11E1828018453A2763140F
:10317000F700110582800841FDB7411106C6CD3721
:1031800009C50A21B240410182800145E5BF4111D4
:1031900006C6F93709C52821B24041018280414560
:1031A000E5BF411122C42A84090506C6EF8080725A
:1031B000FD573CB0B24022444101828083C7F18F69
:1031C000AA86850703A5418D014712216307D60012
:1031D00005071905E36BF7FE01458280411122C402
:1031E000416406C626C29307E4FF630BF500AA8478
:1031F00089EDE93711E51305F4FFC93711C106A1BF
:10320000B24022449244410182808547639EF50288
:1032100075372A8475D5FD571EA13C201307F00F82
:103220006381E7021307E00F6389E7002830014755
:10323000F9465146A685EF80405E22859D37FD57B1
:103240003CA0230204006DBF8947E39BF5FA854546
:10325000EF20205355F5268595372A845DFD4DB71F
:103260005D71A2C4CAC086C6A6C24EDE52DC56DA62
:103270005AD82E84AC21F9472A89639EF5023D3F36
:103280002A8419CD38219307D00F63EBE70028314A
:103290000147F9460146CA85EF802058228511373B
:1032A0000145B640264496440649F259625AD25A1C
:1032B000425B61618280832A0400B7070001938723
:1032C00007F037071200B3F7FA0013070710B289A7
:1032D00081446385E7022EC6D535B245AA8419CD4F
:1032E000502109CE93174660E3CC07FA4A85EF8058
:1032F000E05ADC2093E707F8DCA05DB7138A018170
:1033000003470A009307F00F1945E30CF7F8E1476C
:10331000E3E9B7F893D71500FD1717070100130766
:10332000E76EB3E7E72003A80700E30C08F603AB5A
:103330004700E3080BF6B3CA0A0863850A00C947C9
:10334000E391F5F6562010440C3008203808029816
:1033500029F92C084A85029B1DCD183039F33820F5
:10336000230AA100B9472308E1006314F702E247EA
:1033700098239C33A207D98F0C084A85FC81EF6003
:10338000C05D19DD14080546D9454A85EF806059AE
:1033900009BFBC84D5B734209147E383F6F00345D9
:1033A0000A0038080146CA85EF802047E31B05EE76
:1033B0002C202808EF80804119C123800900184083
:1033C000B7070001938707F07D8FB7071200938737
:1033D0000710E307F7ECE38504EC3C2031BF411113
:1033E00022C406C62E84D93B09C95C211387170065
:1033F0006315E40093F707F85CA1B2402244410151
:1034000082802A8703A5C18D11E182801C45B227E5
:10341000636BC70003584500B306C8006355D70067
:103420008146639406010841C5B703D3A70093887A
:1034300007016316E30091C192A13E858280850653
:10344000C687B3C60608F1BF397152D42E8A4ED64C
:103450009305E100AA89528522DC4AD856D25AD077
:103460005ECE06DE26DA3289368BBA8BBE8A513FB3
:10347000054439CDAA8428873944D93631C903286F
:10348000450063070804D6875E87DA864A86A685E4
:103490004E8502982A840DED9307E00F638AFA02A5
:1034A000982089476316F702DC4098239C33A207D3
:1034B000D98F0D6713072790639CE7008347190096
:1034C00003460900D285A2075D8E4E85EFF0DFA688
:1034D000F25022856254D2544259B259225A925A19
:1034E000025BF24B21618280797122D422214ECE7F
:1034F000AA89228556CA06D626D24AD052CC5AC8A4
:103500005EC662C4AE8A013E05E52285EF60D00743
:10351000594411E10144B250228522549254025977
:10352000F249624AD24A424BB24B224C45618280F8
:1035300003C7890085476307F700EFF01FA903D58C
:103540002900E9B7AA85AA841385890005362A844B
:103550000DCDFA209624D044CE2003D52900E14792
:10356000E535D9472A846318F50023A6040026858B
:10357000EFF0BFA545B719E12685C1B7DE20268546
:103580002390FA00EFF07FA479B713894400014A31
:103590009D4B594C214B835509009DC9E147630759
:1035A0007A010357C900D94711E3E14703572900BE
:1035B000835649000326890003D5290071352A84E2
:1035C0006310850323240900050A3109E3156AFD08
:1035D0002685EFF09F9F25D4D947E31EF4F21DBF47
:1035E00065D5835709002390FA00F9BF0111708750
:1035F0009307E00F1306E1000147894606CEA9357F
:10360000F2400561828079714AD00359850022D445
:1036100026D22A84AE844A859305210106D6D53365
:1036200079C51C252AC693F707029DC7A881EFF02C
:10363000BFA2B245AA8711E9239024013945B250AF
:10364000225492540259456182802A204946829729
:1036500001C51E249EA0E5B7035924004A85EFF05A
:103660009F9B01ED41657D15EFF0FF9A09E51E2452
:1036700025459EA0E9B72310250113074500814782
:10368000A146122339EE3147B387E7029305840040
:1036900031462EC691073E9597D0FF1FE780E00583
:1036A000B2453146480897D0FF1FE78000055224F5
:1036B0002A2041478146DD45EF80002F2ACE09E5CB
:1036C0001E2445459EA0A5BF0C48522497D0FF1F3D
:1036D000E780A0022A204C08EF6000672DD15945F1
:1036E000B9BF85073107E39ED7F825459DB7054546
:1036F0008DB7797122D42A840A254AD02E89930560
:10370000E1004ECE06D626D2B289E53925C91C2560
:10371000AA8493F7070285EF18389307200511E371
:103720005C20362450440E242A200147313B21E1FD
:103730001C38B9E32A20EF60605DAA8759458DCF18
:10374000B250225492540259F2494561828028872E
:10375000EFF09F90AA870DC52A204946A68582973B
:1037600045DD1E242310F9001C3899E7D1BFD94745
:10377000E319F5FE238009000145D9B70545D5B702
:103780003945C5B7797122D44AD04ECE52CC56CAEB
:1037900006D626D2AA892E8AB28A3689EFF01FA2CF
:1037A00009440DC53C211307E00FAA845D44638FD3
:1037B000E7001307F00F5944639AE70063920A0287
:1037C000D2854E85EF60005D2A840DCDB2502285F2
:1037D000225492540259F249624AD24A4561828087
:1037E00003550A009305E1002317010019392887C2
:1037F000EFF0FF99AA8505464E85EF10505B2A84AD
:1038000061D1E9B79307F00FE302F9FC9386240036
:103810007946A68517F5FFFF1305E555EF80C00A29
:10382000A381240165B7797126D24ECE52CC56CAF7
:103830005AC85EC606D622D44AD062C466C2AA8AD4
:103840002E8BB28B368ABA8983A4C18DB9C08044CD
:1038500083DC44000149035CA400631499018440A3
:10386000F5B73E2463F757010509410433490908B8
:10387000EDB7E36BFBFE63090A000C204840D286DB
:103880005E86EF50F0676DD1638409002390890153
:10389000A284B25022540259F249624AD24A424B9F
:1038A000B24B224C924C26859254456182809A21DB
:1038B000B621854763E0E60415CFD42101111386B4
:1038C000550022CC138501872E84894506CE32C649
:1038D000EF501063C14711C9542032462E200A20F0
:1038E00001479137A94711C18147F24062443E85A3
:1038F000056182803E8582802E860A22AE21854720
:1039000063E0A50211CD542241110147150606C6F8
:10391000193FA94711C18147B2403E8541018280CC
:103920003E8582802E860A22AE21854763E0A5026D
:1039300011CD542241110147150606C6ED35A947A0
:1039400011C18147B2403E85410182803E8582801F
:1039500039714ED6BE2183D9050006DE22DC26DA77
:103960004AD852D456D25AD05ECE62CC66CA63E3ED
:1039700037152A8A054563820912416BAE8A2314E2
:10398000010002C6014401497D1B894B054CC94C0D
:1039900083D52A000147814601464E852313010045
:1039A0005935AA8471C509EC1307200293066100FA
:1039B0005A8695455285EF70307F2A84630E050E36
:1039C00038849C2025C71885630187054147639487
:1039D000E70ABE244146130524001CA0BE24A1838F
:1039E0001CB0CC4097D0FF1FE78020D149043C8415
:1039F0008507B3C707087C8463FC2707BE24638957
:103A000067078509B3C9090861B763967707BE24BC
:103A10000946130524001CA0BE24A1831CB0CC4081
:103A200097D0FF1FE78060CD1104D1B722C603599C
:103A30006100B82413052400638F7701335999037B
:103A40002305710118A0BE244146A1831CB0CC40BF
:103A50001379F90F41BF2305810118A0BE24135922
:103A600029001379F90FA1831CB0CC4009464DBF42
:103A70003C8429459DC32C005285EF50107E09CD12
:103A800034001546D9455285EF70B06911C53245ED
:103A900097D0FF1FE780A02C0145F2506254D2540A
:103AA0004259B259225A925A025BF24B624CD24CA2
:103AB000216182800545D5B74545C5B7411122C46E
:103AC00006C626C293F705022A84328585C3EFF025
:103AD0000FECAA8505462285EF10702D95476305EA
:103AE000F500BD476315F502214515A093F7850044
:103AF000B6849DC3EFF0AFE9AA8505462285EF1095
:103B0000102B09C59C3481C79C2491C30145B24048
:103B100022449244410182809397456063D7070015
:103B2000EFF0EFE6AA850146D1BF89890D45F9FD81
:103B3000F9BF7971AE8622D42A848A229305E101E5
:103B400006D636C6EFF0FF8B09C90C252285225414
:103B5000B246B087B250456195B7B2502254054580
:103B600045618280411122C406C693F705022A846A
:103B700032858DC3EFF0AFE1AA8505462285EF10AF
:103B800010231547AA876305E5003D47631DE5023D
:103B9000A14715A893F7850099CBEFF04FDFAA85D1
:103BA000054622852244B24041016F1050201397F0
:103BB000456063570700EFF08FDDAA850146D5B752
:103BC000898991E18D47B24022443E85410182803E
:103BD0007971AE8622D42A848A229305E10136C601
:103BE00006D6EFF01F82B24601C90C252285225469
:103BF000B087B2504561BDB7B2502254054545610A
:103C000082803E257971416722D426D24AD04ECE99
:103C100006D6231701007D17AA843284368981498C
:103C2000638CE7009420D040138517001307E10050
:103C300033450508CD3EAA899420D0408945138597
:103C40000187EF50F02B15C5A2242285EFF0EFD2AB
:103C500009C57D142A943344040863040900231021
:103C60008900B2502254925402594E85F24945615E
:103C700082809420D04089451385C186EF5050281A
:103C800061F59420D040894513858186EF505027F7
:103C900011C9E38C09FA3C87E39987FA03D4A90098
:103CA0007D1455BFA22455BF397122DC26DA4AD8CB
:103CB0004ED652D456D25AD05ECE06DEBE8B9C254E
:103CC0002A8AAE84C18BB28A36843A89C289468BED
:103CD0009DEF942089476383F6065685EFF04FB633
:103CE00005CD832805006389080222866254F250BC
:103CF000925A5A88CE87025BB2595E87CA86F24BC7
:103D00004259A6855285D254225A21618288328531
:103D1000EFF08FB4AA8709ED3945F2506254D254BE
:103D20004259B259225A925A025BF24B2161828067
:103D30002946A6855285829749DDC5B7DC4003C375
:103D4000170098238D6722033363E300138647909F
:103D500013175360E343E6F81386F78F634BE602CD
:103D600093862780630DD70863C8E604F9779387A5
:103D700007803E93854733430308E3E067F62D450C
:103D8000E39D0BF8DC449023CC432310C90022852B
:103D900021AAF5779387F76F3E938D473343030846
:103DA00063E9671017070100130787C03343E32057
:103DB00083270300BA97828793873780E31FF7F042
:103DC0002D45E39C0BF485472310F900DC44814525
:103DD0009C231CA0AA24050533450508EFF06FE2DB
:103DE0008357090045E591072310F90011468145E5
:103DF0001305140097D0FF1FE780009459A02D45AC
:103E0000E39D0BF0DC446C0083C917009823A209E2
:103E1000B3E9E90011472310E9009C234E851CA05B
:103E2000DC449C331CB0EFF0CFDDAA8429CD308672
:103E3000C1659306E100FD158329C500D93319E951
:103E40009420D04089451385C186EF50700B19E14D
:103E5000FD577C8703C7090089476310F70283A5D4
:103E6000490009461305440097D0FF1FE780E0880A
:103E70008357090089072310F9003C873CA0A183E0
:103E80003CB0014559BD23173101C5BF1821890731
:103E9000BA972310F9003E251CB03E25A1833CA013
:103EA00010214C411305340097D0FF1FE780E084B8
:103EB000C9BF2D45E3930BE62310D900DC449C23B6
:103EC0001CA0DC449C331CB06DBFC844EF00611ED5
:103ED000334705081D45E36277E56380EB02B3864F
:103EE000790163C6E60033077741B3490708CC443C
:103EF000231039014E86DE9559BD8149CDBF2D4530
:103F0000E39D0BE0CC445285EFE0DFF689472310B8
:103F1000F90008A0218108B0ADB72D45E39F0BDE65
:103F200089472310F90059BF2D45E3980BDEDC4487
:103F30001D472310E900982318A0983318B0BA231E
:103F400038A0BA23218338B0D82358A0FA2358B018
:103F5000FE23A1837CA035B75D71A6C2AA842A2165
:103F60004EDE52DC56DA5AD85ED662D466D26AD0B9
:103F70006ECE86C6A2C4CAC0AE8AC16BEF50700CAA
:103F8000130CF5FF2A8A814997EDFF1F938D0D06CB
:103F9000938C818C138BC18CFD1B334D0C08DE245C
:103FA00063F6F90083D70D0063CD8701AA2097E55A
:103FB000FF1F9385A503EF50104B2A840DCD594464
:103FC0001DA89C449305E100B3A7F92003C917007D
:103FD0009C2322093369F9004A85EFF08FC2AA8534
:103FE0001DE923902A0103A54D0009C597D0FF1FA5
:103FF000E780E0D60544B64022852644964406492B
:10400000F259625AD25A425BB25B225C925C025D08
:10401000F24D6161828083C8440083A60C00308722
:10402000AA206A8881475A8741312A8419C9239076
:104030002A0103A54D0061D197D0FF1FE78020D250
:104040005DBF83A74D0099EFAA20514781465E8648
:10405000BD45EF70701523A2AD0009E523902A013C
:10406000454451BF83D70D0003570B003E9763476C
:1040700047013307FA407D172310EB0003A54D00DD
:1040800003560B0083A50C003E95850997C0FF1FC2
:10409000E780A06683D70D0003570B00B3C909085A
:1040A000BA972390FD00E5BD397126DAAA842A214A
:1040B0004ED65AD006DE22DC4AD852D456D25ECE34
:1040C00062CC66CA6AC82E8BEF50A077AA89D42426
:1040D000AE248A2478001386D400EFF0CFF405C113
:1040E000938BB9FF2A84E5190149138C818C938C39
:1040F000C18C33CA090863497901631B09109E24E6
:1041000029452310FB009DA8035DC10083C844001E
:1041100083260C00AA205288814766876A86A2857A
:10412000EFF09FB819C9AE2422859306E1006A8694
:10413000EFF03FAD2A8461F0C9B783D70C00922815
:10414000E313F6FE83250C00C84897C0FF1FE780E5
:10415000A06271D997E9FF1F938949E983A74900B4
:1041600095EFAA204166454781467D169D45EF7033
:10417000B0031DE19E2445452310FB00F25062541C
:10418000D2544259B259225A925A025BF24B624CB3
:10419000D24C424D2161828023A2A900AE24835AD1
:1041A000A40022859306E1006A86EFF09FA52A8489
:1041B000E3830AF883A74900130719003347070868
:1041C000CA972380570183A7490093DA8A00930690
:1041D0002900BA972380570113073900110983A7D3
:1041E0004900B3C60608334707083349090811C90F
:1041F0003087B69790A383A749002182BA9790A3EE
:10420000DDBDB697FD5694A383A74900BA9794A342
:10421000AA2097E5FF1F938565DD13592900239098
:104220002501EF50D00E39D9594589BF411122C41B
:1042300006C693F705012A84328585C3EFE03FF572
:10424000AA8505462285EF10803695476305F5005F
:10425000BD47631DF502214515A893F7450099CB8D
:10426000EFE0FFF2AA85054622852244B2404101D3
:104270006F10E03393F7050491C7EFE05FF1AA8573
:104280000146DDB713C5F5FF05890605B240224496
:1042900041018280797122D426D252CC06D64AD0EE
:1042A0004ECE56CA5AC82A8AAE840144DE206364C0
:1042B000F400014535A883AA04009319140013895A
:1042C0001900B327542103CB0700B3872A018823A1
:1042D0009305E100220533656501EFF08F921DE142
:1042E00023806A019C4005453E990347090098B325
:1042F000B250225492540259F249624AD24A424B75
:10430000456182800C25308752850D3701CD9C4058
:10431000BE9903C7090098A39C403E990347090032
:1043200098B3F9B705043344040849B70111AE87BF
:1043300022CC2A848A239305E10006CEEFF06F8C0D
:1043400001C90C25228562443087F2400561F9BD20
:10435000F2406244054505618280397126DAAA84FB
:104360002A214AD84ED606DE22DC52D456D25AD062
:104370005ECE62CC66CA2E89EF50A04CAA89D424A6
:10438000AE248A2478001386D400EFF0CFC96304EA
:104390000514416B938AA9FFAA8B0144138A818C6F
:1043A00097ECFF1F938C8CC47D1BED19B3CA0A08D0
:1043B000035CC10083C58B00AA206286853D631A19
:1043C000051483C8440083260A00AA205688814722
:1043D0001387C18C6286DE85EFF01F8D631B05128B
:1043E0000DC883D72C0003D7C18C11076395E70054
:1043F000A29763C1370797E5FF1F938525BFBE21AD
:10440000AA203354F40282A1EF50700915C1594516
:1044100005A0AA20494781465A86C545EF70C05875
:1044200023A2AC001DE183D7AB0045452310F90062
:10443000F2506254D2544259B259225A925A025BF3
:10444000F24B624CD24C2161828083D7C18C9107A0
:104450002391FC0083A74C0003D7AB006286A29790
:1044600098A383A74C001307140033470708BA9793
:1044700003D7AB009306E1005E85218398A3AE24A9
:10448000138CC18CEFF0EFF7130624009306340071
:10449000110483A74C00AA8B33460608B3C606084E
:1044A0003344040815EDB2977D5798A383A74C00B9
:1044B00083250A00B69798A303A54C0003560C0069
:1044C000229597C0FF1FE780402383570C00A297D7
:1044D00033C407080DF09E2429452310F90089BF35
:1044E0003887B29783250A0098A383A74C002183BD
:1044F000B69798A303A54C0003560C00229597C0CD
:10450000FF1FE780801F83570C003E94334404084C
:1045100045B583D7AB002310F900E31E04EC9E24BD
:104520002310F90031B71D71A6CACAC8AA8403595D
:1045300085002A21A2CCCEC6D2C4D6C2DAC05EDEA5
:1045400062DC6AD886CE66DA6ED6AE8AEF50602F0D
:10455000130BD5FF01447115138CD400938B818C00
:10456000138AC18C17EDFF1F130D4DA8B349050821
:10457000635C6411D424AE241307E10162864A858A
:10458000EFF06FAAAA8C630105100359A500B0874C
:104590000C25AA2032C65939631D050E83C8440074
:1045A00083A60B003246AA204E8881475287E685B3
:1045B000EFF08FEF79ED15C483570A0003572D00F4
:1045C00089076302F70697E5FF1F938525A2BE21A1
:1045D000AA20B357F4029EA1EF50C05B0DC159450C
:1045E00039A8AA2041664D4781467D16A545EF7042
:1045F000A03B2322AD001DE123902A014545F64052
:104600006644D6444649B649264A964A064BF25B6A
:10461000625CD25C425DB25D2561828083570A0094
:1046200089072311FD0083570A00A29763DE6705FF
:1046300083274D0003D7AC00930D2400A29798A3C5
:1046400083274D0003D7AC000504334404082183BD
:10465000A29798A303254D0003560A0083A50B00DB
:10466000B3CD0D086E9597C0FF1FE78000098357F3
:104670000A00BE9DC167FD1733C40D08E30AF9EEB9
:10468000050933490908EDB5294515FC23902A0190
:10469000BDB76DDC0DBFA387A180828041677D1708
:1046A0006315E5002E856FE0CFEF411106C6EFE000
:1046B0002FEA09C5FD571EA123010500B2404101A3
:1046C0008280011126CA06CE22CC4AC88547AA8418
:1046D000639FF5022685EFE01F9439E54169930554
:1046E000F9FF1307E1008946138641860545EFF07F
:1046F0008F932A847D191DC04C4426854537308709
:1047000022858146CA85EFF0CFCF2A84EDB789474D
:104710006396F5008545EF10C0064DDDF24062441A
:10472000D244424905618280EFE03F8A45BF411192
:1047300022C406C626C21384818F683023AC018C44
:1047400023AA018C23A8018C3DCD9307E0063305F5
:10475000F5029165938515709384818D1905334514
:104760000508EFF0B05970309307E0068145330635
:10477000F60288C0190697C0FF1FE780E0FB9C4047
:1047800078308145938647007D5563C6E5069306DC
:104790004006B306D7020146FD55B69723AAF18C11
:1047A000BE868EA2ACB2ACA2238206000506990694
:1047B000E359C7FEF95696A3050799463307D70272
:1047C000BA9723A8F18C17F5FFFF1305A5A9EF7081
:1047D000401917F5FFFF1305C5C0EF40F07917F535
:1047E000FFFF1305E59FEF00F071B24022449244B1
:1047F000014541018280239EA6FE36861388060667
:1048000023100600232406003106E31B06FF85055E
:10481000938646069DBF411106C622C42A84EF40F6
:104820000061EFE0EFD903A5018D23878180EFE0E0
:104830004FD7238881802244B2401705000013051A
:1048400085E841016F00106C9397556063DE072C7B
:10485000797103C5E18022D44AD006D626D24ECE45
:104860002E89EFD0CFC02A8459C518219307000B99
:104870006310F70885479384818CDC849C40231562
:10488000010089EB5526916593853570EFF010474F
:1048900088C031C96146814517D5FF1F13050575CD
:1048A00097C0FF1FE78040E983494400894763932D
:1048B000F9089D2E97D4FF1F938444738AA02A2061
:1048C000A685EF50C015AA869E202A201A248DEEB8
:1048D0006363F7001EA40E24EF7000092285EF70B9
:1048E000C0019C8491C74C2013058400EF702023E5
:1048F0002285EFD08FACB25022549254F249131556
:10490000F9680259456182806363F7001EA41E2482
:10491000D94597D6FF1F9386666D0D469EA0EF7012
:1049200040008D4545DD17D5FF1F1305256CEF7041
:10493000001F6DB79387A9FF93F7F70F4947E36F00
:10494000F7F817F700001307A707B3C7E7209C4342
:10495000BA9782879305A1002285EFF0EFF4AA842D
:1049600035DDD9476392F40A85092A2093F9F90FB6
:1049700097D6FF1F938686674E86D945EF60707A7B
:1049800031DDCE854DB79305A1002285EFF0BFB98B
:10499000F9B7835984006C004E85EFE09FA6AA8486
:1049A0002DC12A2041669306E10055477D16AD458D
:1049B000EF60907F97D9FF1F9389496323A2A900D5
:1049C000AA8645CD834844000358E10030862A205A
:1049D000A68581474E87EFF02FADAA846310050EA0
:1049E0002A20CE85EF506020E30A05EE2A20D94523
:1049F000CE862D46EF60F072AD45E30105EE4E85A3
:104A00003DB72315310185441830D147E308F7EC51
:104A10005C2097D9FF1F9389695D2A202380F900C4
:104A20003C85CE85238299002391F900EF40F072F6
:104A3000E30605EA2A20CE860546D945EF60706E6A
:104A4000E30E05E8854565BF835984006C004E85FB
:104A5000EFE03F9BAA8455D52A2041669306E100EA
:104A600059477D16B545EF60307497D9FF1F93897C
:104A7000E95723A2A900AA8609E51E24C5447C851E
:104A800061B7834844000358E1003E2430862A2061
:104A9000A6854E87EFF04FA1AA840DE12A20CE858E
:104AA000EF50E017E30C05E22A20D945CE863546C3
:104AB000EF603067B545E30305E291B7D94703A539
:104AC00049006397F40097C0FF1FE780402939B57C
:104AD00097C0FF1FE780A0281E247C8535B793056B
:104AE000A1002285EFF04FC79DBD9305A10022854F
:104AF000EFF0BF86ADB5130691009305A1002285A6
:104B0000EFE03FBFA9BD9305A1002285EFE0BFAF55
:104B1000AA84E31805E4A3040100C9B39305A10026
:104B20002285EFE07F9C25BD014582808280411176
:104B300026C2444522C406C62A8495C0C84409C575
:104B400097C0FF1FE780A021C84809C597C0FF1F75
:104B5000E780E020268597C0FF1FE7804020228560
:104B60004146814597C0FF1FE78000BDFD571CB43B
:104B7000B240224492444101828015C13E2141113C
:104B800022C406C62A8481CBDD45E92B2285224436
:104B9000B240410169BFB24022444101828082801B
:104BA000411122C4B1471304C5FFB307F40226C262
:104BB00097D4FF1F9384044506C6A697BA276315AA
:104BC000B702C84315C19307F00F6305F6001C2117
:104BD000639CC70097C0FF1FE7806018B14733048C
:104BE000F402A29423A20400B24022449244410160
:104BF00082808280130600643386C5029306950086
:104C0000AA8517050000130585F76FD04FCC411119
:104C100022C406C62A840835EFD0AFDFFD571CB486
:104C2000B24022444101828003D5C18E82808280BD
:104C30009387C5FF0D47B3C60708636ED70031479A
:104C40003387E70297D7FF1F9387C73BBA97A8A37D
:104C50008EA3014582800945828093074020335509
:104C6000F50A71152396A18E2388B18EA387B18E84
:104C70008280956541111905938535C006C6334577
:104C80000508EFF0B00711C5B240E95541016F408A
:104C9000501EB240410182802388018E8547411118
:104CA0002387F18E06C622C42396018E2A84EF0044
:104CB000500613060003814517D5FF1F13058534E1
:104CC000A388818E97C0FF1FE78000A7EF003023E5
:104CD000B1473305F5029565938565C033450508F1
:104CE000EFF0D00123A4A18E09CD2A84EF0030215A
:104CF00031463306C5028145228597C0FF1FE780F4
:104D0000A0A32244B24017050000130565E241014B
:104D10006F00501F411126C206C622C44AC0AE848D
:104D20009397556063D307081389118F03450900D2
:104D3000EFC0FFF32A8421C5182193070009631DE2
:104D4000F7021831CD476310F7069386018F2821AB
:104D50009C2217D8FF1F03481821130664008145C1
:104D600001476316E50291C19CA29C2291C70345AD
:104D700009008545EFF0004E2285EFC01FE4139532
:104D8000F468B240224492440249410182800E22DA
:104D900005071377F70FAE9793F7F70F09068545C9
:104DA000B3D7070B7DBF1124C1BF13F5150071D90F
:104DB000952509C983C7018F91C7854503C5118F03
:104DC000EFF0404913C514006DBF0547637EC7026D
:104DD0009C319421A207D58F1EA16399E700BC31B5
:104DE000B821A207D98F3EA1014582800947E39DE2
:104DF000E7FEBC31B821A207D98F3EA1DC31D82112
:104E0000A207D98F5EA1CDB705458280A14763185F
:104E1000F6029C319821A207D98F1EA1BC31B8217E
:104E2000A207D98F3EA1DC31D821A207D98F5EA17C
:104E3000FC31F821A207D98F7EA10145828005456A
:104E400082809C211CA19C311CB1BC31B821A207DD
:104E5000D98F3EA1828023220500D8218947631A79
:104E6000F704FE21411122C406C60D482A840545D7
:104E7000637DF8029445983290222207518F1306E1
:104E800047006314F602BC32B022A207D18F13860A
:104E9000C7FF33460608636AC8003AA01EA0F15552
:104EA0003685EF40007D48C00145B24022444101B3
:104EB0008280054582803971AE8706DE22DC26DAE3
:104EC000B2859023C9469833631CD602B223AA84C4
:104ED00028083AC6253F2A8411ED17D5FF1F130570
:104EE00065125E25324799C768253C08C9460146C8
:104EF000A685E522F25022856254D2542161828037
:104F00003008BA85231C010001445D23E5B73971DF
:104F100026DA4AD84ED6AE8406DE22DC97D7FF1FAB
:104F2000238C071097D7FF1F239707109C20054756
:104F30002A89B28597D9FF1F9389C90F6392E70425
:104F4000B020280059352A8417D5FF1F1305850E78
:104F5000EFF0FFCB03C5890094203C000147228677
:104F6000CA85A52A17D5FF1F1305C50CEFF03FBC56
:104F7000F25022856254D2544259B2592161828042
:104F80004D470144E396E7FE03C709009147E3114B
:104F9000F7FEBA2089470544E318F7FA1C321822B5
:104FA0000144A207D98F7C8445B77971AA8522D4A0
:104FB00026D22221AA84280806D64AD0693DF24585
:104FC00099E525E185452285EFF07FC655A0BC8493
:104FD00015476391E706B8858D4763F4E7046800D9
:104FE0008D350359E100DD4763FA27018C86B70749
:104FF00017008507100822853EC85D29BC85110968
:10500000638527012285EFF0DFBE1C8672466C00A7
:10501000858B1106228589CFDD3D01C52285EFF004
:105020005FBD884445D197C0FF1FE78040D359BF7B
:105030005935E5B711476389E7001387A7FF854610
:1050400033470708E3EFE6FC3147F117B387E70280
:1050500017D7FF1F130707FBBA979A2379D3A82303
:105060003008A285212855FDB8849147E31CF7F448
:10507000B2502254925402594561828001114AC8AB
:105080002A89314526CA4EC606CE22CCAE89B284C4
:10509000EFC0DFB729C19307000A231135011EA114
:1050A0002A842146110595C0A68597B0FF1FE78089
:1050B000C064A2854A85EFC01FC50145F240624425
:1050C000D2444249B24905618280814597B0FF1FB1
:1050D000E7808066F9BF0545D5B701114AC82A891E
:1050E0001305000226CA4EC652C456C25AC006CE86
:1050F00022CCAE8A328BB6893A8ABE84EFC01FB109
:1051000021C9930720FA1CA1A300650123115501B1
:1051100023024501A30235012A84614621059DC071
:10512000A68597B0FF1FE780405DA2856244F240EC
:10513000D244B249224A924A024B4A854249056109
:105140006FC07FBC814597B0FF1FE780E05EF1BF75
:10515000F2406244D2444249B249224A924A024B46
:1051600005618280182191476315F702411122C41D
:1051700006C62A842E866E21082581470147CD4622
:10518000A93F6E202244B2404946154541016FF0C7
:105190003FA182809A21B14771173307F70297D751
:1051A000FF1F938727E6BA97D84301EBD841AAA7F8
:1051B0000145D8C3BA219AA7828059458280BE2171
:1051C000B5CF411126C206C622C403D7C18EAA8418
:1051D0006D45636DF7042E8448409145EF4060496A
:1051E0003E20AA8681451CA13E20A1831CB11E2021
:1051F0003CA11E20A1833CB13220268511063346F6
:105200000608EF20A04E19E51387018F1C2385E7C0
:10521000014529A889476305F5029D476304F50206
:10522000C9476303F502FD47E300F5FEB24022449F
:10523000924441018280FD171CA3D9BF6D45828035
:105240005145EDB71145DDB70945CDB7011122CC68
:105250004AC831441309C5FF3304890226CA97D4CA
:10526000FF1F938424DA06CE26945C4095CF03C7B3
:10527000018F05C768843EC62A241E242C007C8525
:105280003D3F11C5484097C0FF1FE78040ADB14783
:105290003309F902CA9423A204000545F24062448E
:1052A000D2444249056182800145CDBF9E210D4710
:1052B000F117B3C70708636DF704DC41411122C43D
:1052C00006C626C22E84B9C78545AA845D2929C988
:1052D0002685FD26C167F917638DF40019E93E2084
:1052E00089CB16201947639FE60203D7C18E63FB63
:1052F000E70283C7018FA285268591C72244B24069
:10530000924441016DBD2244B2409244410159B5DD
:10531000094582800945B24022449244410182807D
:105320005145D5BF6D45C5BF797126D252CCAA84EF
:105330002E8A5D4589454AD04ECE56CA06D622D41D
:10534000B289B68A3A89EFF0DF922DC12A840145ED
:1053500063060900D685130544000299935785001A
:105360003CB093074500230044017C85954728A065
:105370007C84A300340122C683C7018F2C002685BC
:105380009DC3353DAA8411C5228597C0FF1FE780C4
:10539000009DB25022540259F249624AD24A2685EF
:1053A000925445618280EFF0FFDEE9BFCD44D5B76E
:1053B000411106C622C497D8FF1F9388A8C723802F
:1053C000E8001387E18E3288102395472391F80077
:1053D0009307160093F7F70F1CA32382C80099E3E5
:1053E00085471CA33687C28681372A8401CD17D50D
:1053F000FF1F130525C4EFF08FF3B240228522442E
:1054000041018280F94517D5FF1F1305A5C2EFF0B2
:105410006FFEE5B74111154506C6EFF03FE309C53C
:105420000545B240410182801945EFF03FE26DF938
:105430001145EFF0BFE16DF51D45EFF03FE133356C
:10544000A000C5B79E211CA19E21A1831CB1BE2135
:105450003CA1BE21A1833CB1DE215CA1DE21A18360
:105460005CB1FE217CA1FE21A1837CB1214582801B
:105470009A218546AA8718A19A21218318B19A21D9
:105480006319D700BA2138A1BA21218338B1114557
:1054900082800945631DA700BA211945B8A3BA2126
:1054A0002183B8B3DA21D8A3DA212183D8B382804B
:1054B000B286170700001307E7FB2E868545ADB5BA
:1054C000B28701482E861147970600009386C6F7DB
:1054D000C945F9BD011122CC26CA4AC84EC606CE1E
:1054E000AA842E8917D4FF1F1304C4B597D9FF1FB0
:1054F0009389C9B61C4081C7CA8526858297110445
:10550000E31A34FFF2406244D2444249B249056191
:1055100082804111A56506C622C426C21384818FEC
:10552000854785051305C0037CB07CA0EFE0107DA6
:1055300070209307C0039384418F3306F6028145A0
:1055400088C097B0FF1FE780201F74209C40014750
:105550007D566340D7022244B24092446146814561
:1055600017D5FF1F130505AE410117B3FF1F6700D5
:10557000A31CB2A32382070023A607020507938773
:10558000C703C1BF83C6E18F83A7418F01476394DF
:10559000E60001458280AE231386C7036394A5000D
:1055A0003E85828005071377F70FB287CDB741118B
:1055B00022C426C24AC006C62A892E84B284D9379C
:1055C00009EDC167F91751456313F9000145B24070
:1055D0002244924402494101828054555C2195C283
:1055E00013F727014146630BC700C18B3D45E5D347
:1055F000BC2E0145E3FD87FC3145D1BF1545F5D4EF
:10560000F9B7C18B0145E1F71545D1B779714AD09A
:10561000416922D426D24ECE52CC56CA5AC806D69A
:10562000AA8401449389818F138A418F930AC0030E
:105630007D19054B83C769006364F400014525A803
:105640003307540383270A00BA97BA236316270146
:1056500005041374F40FF9BFC83330009385670055
:10566000EF20B0441946A685280097B0FF1FE780B9
:10567000A010E31F65FDB250225492540259F24922
:10568000624AD24A424B456182804166AA8683C5FE
:10569000E18F03A7418F81477D166394F500014593
:1056A0008280035827003A856306C8000348070034
:1056B000E308D8FE850793F7F70F1307C703F1BF79
:1056C000411106C6C13509C54A29B240410182804F
:1056D0000145E5BF03A7418F83C6E18F11078147CD
:1056E00001456393F6008280102301C605051375FA
:1056F000F50F850793F7F70F1307C703DDB703C54A
:10570000E18F828097D7FF1F9387C79381463E869C
:105710008C43368791078506E5FD3347C72008C3CC
:1057200001458280411106C622C4EFF0BFE50DCDD0
:105730002A842A218545EFF0FFD9485409C597B03E
:10574000FF1FE780C06122851306C003814597B023
:10575000FF1FE78060FEFD573EA0230204000145C5
:10576000B2402244410182800945DDBF411106C695
:10577000EFF05FE109C54825B24041018280014553
:10578000E5BFC167F9176303F502411122C406C6DC
:105790002E84EFF03FDFAA87014589C7DC237D8C8B
:1057A00033358000B2402244410182800545828029
:1057B000411122C406C62E84EFF0DFDC01CD5A2948
:1057C000AA87054563048700C2AB0145B240224465
:1057D000410182800545DDBF39C901114AC84169CF
:1057E00022CC26CA4EC652C456C206CEAA84014452
:1057F0009389818F138A418F930AC0037D1983C7D0
:105800006900634BF400F2406244D2444249B24919
:10581000224A924A05618280B307540303250A0095
:105820003E953E216383270182940504C9BF82808F
:1058300083A7418FC16603C6E18F890701470145F0
:10584000FD1691456343C700828003D807006309B2
:10585000D80003C8A7006315B80005051375F50F38
:1058600005079387C703F9BF83A6418F03C6E18F5E
:10587000910601478147631FE600858393C7F7FFC1
:105880000545B3C707086361E5023315A028334512
:10589000050882808C2299C1CE36CD8F05071377FB
:1058A000F70F9386C603C1BF93F61700F9FE0505EF
:1058B00085831375F50FC1BF797156CAAA8A2E85E3
:1058C00026D24AD04ECE52CC5AC85EC662C406D644
:1058D00022D4AE84328B368CBA8B3E8AC2894689FA
:1058E000EFF05FCA25ED41657D15EFF0BFC92A8451
:1058F000554529C81946DE8513056400A3028401B5
:1059000097B0FF1FE78060DF8357010326A02302C3
:1059100064013EA883574103230054012326040257
:105920005EA82306440123173401231824012D3FC8
:105930000AB8232A04022685232C04028145EFF0AD
:105940007FB90145B250225492540259F249624A39
:10595000D24A424BB24B224C456182804545DDB76D
:1059600083C6E18F03A7418F81476395F6004165A8
:105970007D1582800E3B1306C7036394A5002A237E
:105980008280850793F7F70F3287C5B7416683C5D5
:10599000E18F03A7418F81477D1615486394F50079
:1059A0000145828036233A85638BC600545B81CAE9
:1059B000B4329386F6FD93F6F60FE374D8FE8507AE
:1059C00093F7F70F1307C703D1BF416683C5E18F74
:1059D00003A7418F81477D1625486394F500014553
:1059E000828036233A85638BC600545B81CAB43209
:1059F0009386E6FD93F6F60FE374D8FE850793F7DA
:105A0000F70F1307C703D1BF01112AC6594506CEA8
:105A100022CCEFC0AF9F39C1B24559462A8497B016
:105A2000FF1FE78080CD9167938717E91EA0854708
:105A30003CA03C3081CF930710033CB01946814510
:105A40001305840097B0FF1FE78000CFA285624452
:105A5000F24003C5818F05616FC0EFAAF240624436
:105A60000561828001112AC6314506CE22CCEFC0E5
:105A7000EF9915C5B24531462A8497B0FF1FE780DC
:105A8000C0C79167938717E91EA08D473CA0A285E8
:105A90006244F24003C5818F05616FC0CFA6F2401A
:105AA00062440561828001114EC6AA89394526CA21
:105AB0004AC806CE22CC2E89B284EFC02F9515CDD0
:105AC0009167938727E91EA19147A301350123120E
:105AD00025012A843CA1A6851905214697B0FF1F00
