:040000006F0050013C
:100004000000000000000000D40400205004002080
:10001400A9BDF9F35419000000000000000000001D
:1000240054190000541900000000000000000000F2
:1000340054190000000000005419000000000000E2
:1000440000000000541900000000000054190000D2
:100054005419000054190000541900000000000055
:10006400541900000000000000000000B601002048
:1000740054190000541900005419000054190000C8
:100084000000000054190000000000005419000092
:10009400411126C2AA84172500E01305258306C64C
:1000A40022C42E84971000E0E78000D829451D293A
:1000B400B747004098231377F70E98A333C7040873
:1000C4009AAF13174400BA940A04B3C40408C6AF21
:1000D400254733440408C2A7F8A3983313671700CD
:1000E40098B3F823058B75DF98331377E70F98B32C
:1000F400B2402244924441018280B71600409E2EB1
:10010400717701117D1706CEF98F22CC26CA4AC811
:100114004EC652C456C25AC09EAE1945971000E04E
:10012400E780208913056004E128138B018F971061
:1001340000E0E7808085971A00E0938AAA799710F7
:1001440000E0E780A0801709000013092976170A48
:100154000000130A2A6CB71400404144971900E0C8
:100164009389C9775A85971000E0E78080A41375B6
:10017400F50F6DD95685971000E0E780E0CA294550
:1001840095264A86528593050005970000E0E7808E
:10019400C0749387C40A80C39305800C4A85CD3DFF
:1001A4009387840B80C32945352E4E85971000E034
:1001B400E78080C745BF37370040834747409946AB
:1001C400BD8B6387D70031476388E7007300203015
:1001D400834757407300203041111385018F9710D6
:1001E40000E0E780009D1375F50FC8878C871385A1
:1001F400018F971000E0E78080994101730020305F
:100204009307000C01116318F50493078008F3B7F2
:10021400078093F787083EC00F100000B71700400F
:10022400130770052380E704130780FA2380E7048B
:100234000F100000F83713670704F8B798271367FF
:10024400070C98A7238007048247F3A707800F10A1
:10025400000005618280B7170040B827118B69EB55
:1002640083C6E7041307800893F6F60F73360780F6
:100274001376860832C20F1000001308700523801D
:100284000705930580FA2380B7040F10000003C606
:10029400E704136636002387C704B02713664600B5
:1002A400B0A7238007041246732606800F100000AF
:1002B40090271376F60F73370780137787083AC4AD
:1002C4000F100000238007052380B7040F100000DF
:1002D40098271367070C98A723800704A247F3A75E
:1002E40007800F100000A5470100FD1793F7F70FD3
:1002F400E5FF93078008F3B7078093F787083EC6A6
:100304000F100000B7170040130770052380E7049F
:10031400130780FA2380E7040F10000090A72387B7
:10032400D70423800704B247F3A707800F10000007
:100334009377050C13070004639DE708930780086F
:10034400F3B7078093F787083EC80F100000B7176C
:100354000040130770052380E704130780FA238005
:10036400E7040F100000B827854613670701B8A7F4
:1003740037270040A303D7808346578093E60601BE
:10038400A302D78023800704C247F3A707800F1076
:10039400000093078008F3B7078093F787083ECEE1
:1003A4000F100000B7170040130770052380E704FF
:1003B400130780FA2380E7040F100000F837137541
:1003C400F50F13670704F8B788A723800704F247DB
:1003D400ADBD9377F5019DCF93078008F3B70780F0
:1003E40093F787083ECA0F100000B71700401307A1
:1003F40070052380E704130780FA2380E7040F10B5
:100404000000372700408946A303D78023800704D0
:10041400D247A5BF93078008F3B7078093F78708EF
:100424003ECC0F100000B71700401307700523805F
:10043400E704130780FA2380E7040F10000037272E
:1004440000409D46A303D78023800704E24735BFBD
:1004540041118146014681451145970000E0E7803E
:10046400C07913078008F337078093F787083EC4E1
:100474000F100000B7170040130670052380C7044F
:10048400930680FA2380D7040F100000FD55CEB7E1
:1004940023800704A245F3A505800F1000007337DD
:1004A4000780137787083AC60F1000002380C7041B
:1004B4002380D7040F10000003C7670413671700D5
:1004C4002383E70423800704B247F3A707800F10B0
:1004D400000001A001A0E5473305F50201007D15E8
:1004E40075FD8280411122C406C62A841305803E0C
:1004F4007D14D5373344040875F8B24022444101D1
:100504008280230304801547A2872303E48001002B
:1005140001002302A48003C7678062076187E34C5C
:1005240007FE2382A780228783476780E207E1874B
:10053400E3CC07FE82802303048015472303E48071
:10054400010001002302A480828083076480E3CE3B
:1005540007FE23030480828083076480E3CE07FEC2
:1005640003454480828083076480E3CE07FE230230
:10057400A4808280411126C44AC24EC006C61377A5
:10058400F50BAD47AA892E8995446306F7001945F2
:100594005D37653F8D444E85793FFD59FD14639861
:1005A4003401B240A2441249824941018280135568
:1005B40009011375F50F453F2209CDB7011126CC6A
:1005C40006CEB704080051371545B537713769377A
:1005D4002AC6A53F32459377150089EB13651500AC
:1005E4001375F50FF240E24405618280FD14E9FCC5
:1005F4000145CDBF411106C6B7170040130770056A
:100604002380E704130780FA2380E70403C7470421
:100614001305F00F1367070E2382E70491472303A2
:10062400F480C535B24041010DB7011126CC4ACA48
:100634004EC852C606CE2A89AE89B284554A5D3F59
:1006440091E82137F24026855249E244C249324AB0
:1006540005618280CA850945313F910903A7C9FF15
:1006640091472320E48003076480E34E07FE2303BD
:100674004481FD17EDFBFD14110981C49377F90F33
:10068400E9FF2D3F55FDFD5475BF011126CC4ACA23
:100694004EC852C656C45AC206CE2A89328A8D49D9
:1006A400913FC164C16A056B9387F4FFB3F72701D7
:1006B40099E363719A02FD199180E39709FE7135FC
:1006C4000145F240E2445249C249324AA24A124B1D
:1006D400056182801305800D6388540113050002AF
:1006E4006384640113051008CA856935C13D09C5D1
:1006F4002699330A9A4075BF7D55E1B7011106CE9C
:1007040026CC4ACAB2844EC82AC62E89E53532455B
:10071400FD14FD59AA852D45B13D639A3401353543
:10072400F24026855249E244C249056182802D3552
:1007340093F7340091EB8326048003270900930781
:100744004900E39EE6FC3E89FD14C1BF011106CEBB
:100754002AC64D353245C533F2400561FDB301115A
:1007640006CE26CC4ACA4EC852C6AA8956C42E8979
:100774005135CE852D45FD3B81448D4A214AE93BC7
:1007840063965401832704802320F9008504E398A9
:1007940044FF8327048013972901635C0700231215
:1007A400F900F240E2445249C249324AA24A056180
:1007B40069BB2322F900F5B7411106C626C44AC213
:1007C4004EC0AE89053D81451305B0046533BD4473
:1007D4007D59593393F77400CE9703C70700FD146E
:1007E400398D2380A700E39624FFB240A244124926
:1007F4008249410199BB411106C6ED3B13056006D0
:100804001D3BA133130590093D33B240410135BB73
:10081400971100209381C186172100201301417E86
:100824001305400097F5FF1F9385857D170600206B
:10083400130606FE63FAC5008322050023A05500B3
:1008440011059105E3EAC5FE171500001305C5104F
:10085400970500209385C5FB1386C18063FAC50004
:100864008322050023A0550011059105E3EAC5FE86
:100874001385C180938541956377B50023200500D6
:100884001105E36DB5FE93025002739002BC8D42D4
:10089400739042808542739012BC930280087390D7
:1008A400023097F2FF1F9382A27593E23200739095
:1008B4005230970200209382428473901234730062
:1008C40020302A8311C62300B3007D16050365FE7C
:1008D4008280814781460543D14F3387F703639371
:1008E400B700828013D837001378F80F2A9803488A
:1008F400080093F87700335818411378180091488A
:10090400631308009548850793024701135857005D
:100914003348C820832E0800331FE02833FEEE41FD
:1009240063040300336EDF0185062320C80193F6B8
:10093400F60F050763E51601134313008146E39799
:10094400E2FC61BF411106C6B7170040414723AC22
:10095400E70A8D45130500094D20B74700401547A8
:10096400B8B3094798A31307400698A398331367AD
:10097400070198B398331367070298B3B240410153
:100984008280411106C6B7170040214723ACE70A0D
:10099400854511459D208D4521458520014681458C
:1009A40005452524B240410175A23717004083470D
:1009B400E70412054111BD8BC98F93F7F70F930616
:1009C4008008F3B6068093F6860836C60F1000003A
:1009D400930670052300D704930680FA2300D704F6
:1009E4000F1000002307F70423000704B247F3A7FE
:1009F40007800F10000041018280914763ECB70427
:100A0400971700009387C7EDB3C5F52098413E972B
:100A1400B71700409387470B02879443371700406A
:100A2400B3F6A64094C39306070B9C42B3F7A740C2
:100A340019A8944337170040B3F6A64094C393060D
:100A4400070B9C42C98F9CC29307070A98433377CC
:100A5400A74098C38280944337170040C98ED9B702
:100A640098433377A74098C3B71700409387070A82
:100A74009843498FF9BF9843498FF5B7B71700409A
:100A840098279306000C1377070C6315D70003A56A
:100A9400C18082809827930600041377070C6310A3
:100AA400D702942713070002FD8A99C298277D8BE9
:100AB4003745C323130505603345E5028280942737
:100AC40013070002FD8A99C298277D8B3755E801E8
:100AD40013050580D5B73285814737370040A146D5
:100AE40063C3A70082800346B740E30ED6FE338675
:100AF400F500102285072304C740DDB797060020C0
:100B0400938606D8AA87884213874195AA9763E9F2
:100B1400E7000A87130707FC6364F7009CC282801E
:100B24007D558280411122C406C62A84813F29470B
:100B3400B307E502B2408D83B3D7870222449507F9
:100B4400B3D7E70237370040B3C707082316F74087
:100B540041018280716541111305052006C6D9370C
:100B6400B7370040130710F82381E7400D47A381EE
:100B7400E74013070004A380E74005472387E740C5
:100B8400B24041018280AA95B73700402147B73669
:100B940000406313B500828003C6B740E30BE6FE52
:100BA400102105052384C640EDB78147373700403F
:100BB4008346A74081E633C5070882800346874001
:100BC400B306F500850790A2E5B7371700403E2F1E
:100BD400B3C7070893F707FCB3C707083EAF09C9B3
:100BE4003E2F8E055D8ED18DB3C505082EAF828054
:100BF400828001112A8706CE2E8526CCB2854ACA68
:100C0400368622C637240040B7E700E0FD5603A924
:100C14000700C44323A0D71823A2D7189307F7FFCC
:100C240093F7F70F0948636AF808B717004083C7BA
:100C34005704B7C80300F95763741505B306C50014
:100C440063E0D80463140705098297000020E78055
:100C5400C09DAA8737170040930670052300D70468
:100C6400930680FA2300D70483464704C18A2302EB
:100C7400D70437E700E023202711232297103244BA
:100C8400F240E24452493E85056182808547631FF4
:100C9400F7008567FD173E96E98F3E96FD777D8EBA
:100CA4007D8D97000020E780409E65B79700002067
:100CB400E780C0A49307150071BFB547631AF70016
:100CC4001305900B97000020E78040A8814759B78F
:100CD400B1476315F7001305B00AEDB799476317D9
:100CE400F70097000020E78080A7CDB79D47631BDE
:100CF400F70023A0050023A2050097000020E78049
:100D0400A0ABE9B791476317F70097000020E7808D
:100D140080AE6DBF81471DDFF1572DBF011126CA7B
:100D240006CE22CC4AC84EC652C4AA8419E11C4538
:100D340002901C4D2E89ADE325239C4C8044B9CFF1
:100D440097170000938707BF631DF404C0407C50CD
:100D5400858B99E75E2493F7072099E3284CAD2D02
:100D64005E24A18B99C31C48D5E3A2852685AD2AB0
:100D740051CDFD547C50858B99E75E2493F7072071
:100D840099E3284C992DF24062444249B249224ADF
:100D94002685D2440561828000455DB72685C92138
:100DA40045B7971700009387E7B66314F4008044AF
:100DB40079BF971700009387E7B3E31AF4F8C044A8
:100DC40079B71CC4050963C807021C4013871700C0
:100DD40018C08CA31C4483450900FD17FDF11CC4F5
:100DE40063D907022286A94526858920FD57E30297
:100DF400F5F8A94441B7184C63C4E700E39745FDEF
:100E0400228626852520E31735FDA5B7FD59294AF5
:100E1400D1B71C401387170018C0294798A3D1BF26
:100E2400AA85170500200325E5A5CDBD011122CC17
:100E340026CA4AC806CE4EC6AA842E89328401C563
:100E44001C4D91E33129971700009387A7AE6317D0
:100E5400F402C0401C4C1CC45E24A18B99C31C48E2
:100E640095EFA2852685492015C97D59F240624433
:100E7400D244B2494A8542490561828097170000ED
:100E8400938747A96314F4008044E9B797170000D7
:100E9400938747A6E310F4FCC0446DBF1C48084088
:100EA4009379F90F1379F90F1D8D5C486346F500AA
:100EB400A2852685A12C55F91C440505FD171CC4E3
:100EC4001C401387170018C0238037015C486388CF
:100ED400A7005E24858BD9DBA947E319F9F8A2851D
:100EE40026852D2441D551B7411122C426C24AC0BA
:100EF40006C69704002083A4E4982A892E8489C412
:100F04009C4C99E32685A92E97170000938787A206
:100F14006313F402C0408317C40013F7870025E766
:100F240013F707010DEB25472320E90093E7070496
:100F34005EA47D5571A0971700009387A79D631445
:100F4400F4008044C9BF971700009387A79AE3145D
:100F5400F4FCC044C9B7918B9DC34C5889C993070D
:100F640044046384F5004A85B92B232A04025E24D1
:100F74002322040093F7B7FD5EA41C481CC05E2422
:100F840093E787005EA41C4899EB5E2413070020B6
:100F940093F707286385E700A2854A8561298317AB
:100FA400C40013F717001DC3584823240400330753
:100FB400E04018CC1848014501E713F707083DF74E
:100FC400B2402244924402494101828013F727002F
:100FD400814611E3544814C4F1BF8397C50001113D
:100FE40022CC26CA06CE4AC84EC613F78700AA8466
:100FF4002E8479E3D8416345E000B8416356E008A4
:10100400585459C303A9040023A004000C5093D7D7
:10101400C748A9CB70485E24918B99C75C401D8E4C
:101024005C5899C33C401D8E5C540C508146268507
:101034008297FD57630CF5041C48056723220400BE
:101044001CC05E24F98F91C368C84C5823A02401A6
:1010540085CD930744046384F5002685AD21232AB6
:1010640004021DA00146854626850297FD572A865F
:10107400E313F5FA9C40C5D375476385E7005947E8
:101084006395E70623A024010145B5A09840831782
:10109400C40001CFF5466305D700D9466319D704C8
:1010A4001C48232204001CC04DB718482322040006
:1010B40093D7C74818C041BF83A90501E38609FC3B
:1010C40003A905008D8B23A035013309394101475C
:1010D40091E3D84918C4E35920FB1C540C50CA8628
:1010E4004E8626858297634FA0008317C40093E73A
:1010F40007045EA47D55F2406244D2444249B24999
:1011040005618280AA993309A940F1B79C4941112C
:1011140006C622C426C281EB8144B24022442685FD
:10112400924441018280AA842E8401C51C4D91E31E
:10113400052A970700009387E77F631CF402C040E9
:101144008317C400F1DB7850058B11E793F7072070
:1011540099E3284C51242685A28541357C50AA84E4
:10116400858BC5FF5E2493F70720C5FB284CB52467
:101174006DB7970700009387E7796314F400804400
:10118400C1B7970700009387E776E31BF4FAC044DE
:1011940045BF411122C406C62A844EA572A5232048
:1011A4000500232205002324050023220506232805
:1011B4000500232A0500232C05002146814513053B
:1011C400C505EFF00FF0970700009387C7515CD077
:1011D400970700009387C7531CD497070000938791
:1011E40087575CD4970700009387C759B24000D053
:1011F4001CD822444101828097050000938545F163
:10120400BDA2411126C2930780069384F5FFB384DF
:10121400F4024AC02E8922C406C693854407692E67
:101224002A8401CD2320050023222501310508C489
:10123400138684068145EFF0CFE8B240228522442C
:1012440092440249410182801385418171A2138530
:10125400418161A21385818141A213858181B5AA4F
:10126400411122C406C62A84F5371C4C89C722447E
:10127400B2404101DDB797070000938727F81CD4DB
:1012840023240404232604042328040483A781803C
:101294006394870085471CCC22853D2048C0228565
:1012A400252008C422850D2048C4484001469145A4
:1012B400CD3508440546A545E93D48440946C94598
:1012C400C93D85471CCC65B7411126C24AC006C634
:1012D40022C42A89953F83A481809C4C99E3268566
:1012E4004137938484048044DC40FD1763D60700AF
:1012F4009C40BDC38440C5BF0317C40039EBC1770C
:1013040085075CC41305840523220406E92081377C
:10131400214623200400232404002322040023283C
:101324000400232A0400232C040081451305C4056A
:10133400EFF02FD9232A0402232C040223240404CB
:1013440023260404B24022852244924402494101E6
:1013540082801304840651BF91454A855D3588C057
:101364002A8449F9ED35B1472320F900E1BF7971A9
:1013740022D44AD04ECE52CC5AC85EC606D626D205
:1013840056CA2A892E8A130485048149054BFD5BBC
:101394000444832A4400FD1A63D00A0200406DF815
:1013A400B250225492540259624AD24A424BB24B2E
:1013B4004E85F24945618280DE24637BFB0083977E
:1013C400E40063877701A6854A85029AB3E9A900F8
:1013D40093848406C9B78280828082805971A2D4A2
:1013E4002E848395E500A6D2CAD086D6B2843689E7
:1013F40063D205025E2493F707088DEB13070040C0
:10140400B65026542320F90098C006599654014535
:10141400656182803000C926E34E05FC3247BD6712
:10142400F98F7977BA9793B71700C9BF8147130724
:101434000004F9B7DE25797122D406D626D24AD023
:101444004ECE898B2E8491CF930774041CC01CC884
:1014540085475CC8B250225492540259F2494561FE
:10146400828074003000AA84953FA2492A89268587
:10147400CE85992219E98317C40013F7072079FB55
:10148400F19B93E727005EA4C1B7970700009387F9
:10149400E7D69CD45E2408C008C893E707085EA476
:1014A400B247232A340199CB8315E4002685892E7B
:1014B40011C55E24F19B93E717005EA45E2433E517
:1014C40027014AA441BFD1CD83A7C5FF011122CC76
:1014D40006CE1384C5FF63D307003E942AC68D2E1F
:1014E400138701821C43324581EB2322040000C38D
:1014F4006244F240056185A6637DF4001040B306A2
:10150400C4006396D7009443DC43B29614C05CC015
:10151400F9BF3E87DC4399C3E37DF4FE14433306ED
:10152400D700631F86001040B29614C33306D70059
:10153400E390C7FC9043DC43B29614C35CC34DBF35
:101544006375C400B1471CC165B71040B306C4003D
:101554006396D7009443DC43B29614C05CC040C386
:1015640041BF828041114AC01389C1818327090088
:1015740022C426C206C6AA842E8489E78145352A58
:101584002320A900A28526850D2A7D59631A2501E9
:101594007D54B24022852244924402494101828012
:1015A400130435007198E30685FEB305A44026852F
:1015B4002922E31025FFE9BF011126CA93843500CF
:1015C400F1984AC8A104B14706CE22CC4EC62A8956
:1015D400B3F4F40A63C4040063FDB400B1472320E8
:1015E400F9000145F2406244D2444249B2490561DE
:1015F4008280B92C9389018283A709003E8431E457
:10160400A6854A858537FD572A846316F50A03A4FF
:101614000900A287C1EB8329040081454A85A29968
:1016240069286394A9081C408D044A859D8CF1980F
:10163400B147A104B3F4F40AA6852D37FD57630618
:10164400F5061C40A6971CC015A01440858E63C8DF
:1016540006042D47637DD70204C0330794006396C4
:10166400870223A0E9005C4014C35CC34A85E522D9
:101674001305B4009307440061993307F540E3036D
:10168400F5F63A94898F1CC0B1BFD8C3E9BF58405E
:101694006395870023A0E900D1BFD8C3C1BFA28747
:1016A4004040B1BF3E84DC43B5B7B1472320F900C5
:1016B4004A8555223DB704C155BF411122C42A842D
:1016C4002E8523A2018206C6EFF04FC3FD57631691
:1016D400F50083A7418291C31CC0B240224441015A
:1016E4008280411122C42E848395E50006C6BD2262
:1016F400634905007C48AA977CC8B2402244410152
:1017040082805E249397C7485EA4C5BFDE2501117D
:1017140022CC26CA4AC84EC606CE93F70710AA841E
:101724002E843289B68991C78395E500894601469E
:10173400DD285E248315E400F2409397C7485EA435
:101744006244CE864A86B24942492685D24405611E
:101754001DA8411122C42E848395E50006C6E1200C
:101764007D575E246319E5009397C7485EA4B24091
:101774002244410182809397C72868C85EA4C5BFEC
:101784008395E5003DA0411122C42A842E85B285AB
:10179400368623A2018206C6EFF0EFB3FD57631627
:1017A400F50083A7418291C31CC0B2402244410189
:1017B4008280411122C42A842E8523A2018206C676
:1017C400D920FD576316F50083A7418291C31CC03D
:1017D400B240224441018280411122C42A842E85D0
:1017E400B28523A2018206C66D20FD576316F5005B
:1017F40083A7418291C31CC0B2402244410182802C
:10180400411122C42A842E8523A2018206C64128BE
:10181400FD576316F50083A7418291C31CC0B240F3
:10182400224441018280411122C42A842E85B2853A
:10183400368623A2018206C68D28FD576316F5005D
:1018440083A7418291C31CC0B240224441018280DB
:101854001385018151B61385018141B6411122C41A
:101864002A842E85B285368623A2018206C6A1204B
:10187400FD576316F50083A7418291C31CC0B24093
:101884002244410182809307800523A2F1827D5581
:1018940082809307800523A2F1827D55828093077D
:1018A400800523A2F182014582809307800523A24B
:1018B400F1827D5582809307800523A2F1827D55B4
:1018C400828000004C45545320474F005350492018
:1018D400444D4100454E44202E2E2E003EF1FFFF84
:1018E40056F1FFFF7AF1FFFF84F1FFFF9AF1FFFF4A
:1018F40000000000000000000000000000000000E4
:1019040000000000000000000000000000000000D3
:1019140000000000000000000000000000000000C3
:1019240000000000000000000000000000000000B3
:1019340000000000000000000000000000000000A3
:101944000000000000000000000000000000000093
:0219540001A0F0
:10195800AAAAAAAA930B51DE00000000000000000A
:101968003419000014190000F418000000000000E9
:10197800000000000000000000000000000000005F
:10198800000000000000000000000000000000004F
:10199800000000000000000000000000000000003F
:1019A800000000000000000000000000000000002F
:1019B800000000000000000000000000000000001F
:0C19C800D40900201C0800201C0800208E
:00000001FF
