:040000006F0010532A
:100004000000000000000000EE0900206A09002042
:10001400A9BDF9F3482B0000000000000000000017
:10002400482B0000482B00000000000000000000E6
:10003400482B000000000000482B000000000000D6
:1000440000000000C205002000000000482B000052
:10005400482B0000482B0000482B00000000000043
:10006400160500200000000000000000482B0000DE
:10007400A8050020482B000090000020482B000019
:1000840000000000482B000000000000482B000086
:10009400411122C626C44AC2971000E0E780C05B23
:1000A400C167E98F2A849374054063880726937790
:1000B400150099C703C59181971000E0E78080403F
:1000C400B70704003377F4006306071093876708C3
:1000D400E18F9DC783C7618103C751819386618185
:1000E40063FFE70898229307170093F7F70F9CA282
:1000F40093874188BA978823971000E0E780803C73
:100104009DC03705001013050540971000E0E780F7
:10011400C0598D472388F1800545238D01809710B0
:1001240000E0E78060339377041099CF1305001043
:10013400971000E0E78060570545971000E0E780DE
:10014400A03195472388F1809377042091CB130540
:100154000020971000E0E780405591472388F18004
:100164009317B028E18F638F07201315B0289710D9
:1001740000E0E780805399472388F18021A483C756
:10018400818189CB0545238D0180971000E0E780AC
:10019400A02CBDB78547814513050040A38BF18092
:1001A400971000E0E780802F814513050020971009
:1001B40000E0E780A02E814513050010971000E0B1
:1001C400E780C02D0545971000E0E780C026238D09
:1001D40001803DB79377240089CB83C75181D5CF64
:1001E4000545971000E0E78040299377040495CBF8
:1001F40003C9618193071900238BF180971000E0F4
:10020400E780E02C93874188CA9788A303C751816C
:1002140083C7618163FCE7080545971000E0E78028
:10022400C025E38204F0370500101305054097103C
:1002340000E0E780804783C4618193871400238BA7
:10024400F180971000E0E780802893874188A69783
:1002540088A383C78181E39107EC85478145130512
:100264000040A38BF180971000E0E78020238145B4
:1002740013050020971000E0E78040228145130514
:100284000010971000E0E78060210545971000E01A
:10029400E780601A238D018079B50145971000E04D
:1002A400E780A01D8547A388F18081B70145971099
:1002B40000E0E780801C93871181982321CFA388D5
:1002C400018083C7818189CB0545971000E0E780D1
:1002D400A018238D0180B1B78547814513050040DF
:1002E400A38BF180971000E0E780401B8145130544
:1002F4000020971000E0E780601A81451305001084
:10030400971000E0E78080190545971000E0E7802A
:100314008012C1B7054798A329B7937725008DCBE1
:10032400B707040093870708E98F1387A181D5C312
:1003340091471CA3238A0180A389018083A7C180DC
:1003440081CB9C4391C793853181138541868297E4
:10035400B7070400E18FE1C30545971000E0E7808B
:10036400C011ADCC3705001013050540971000E00F
:10037400E780A0330545971000E0E78000100144B2
:10038400238D01808567E18F89CB0565971000E097
:10039400E780A0319D472388F1809167E18F89CB65
:1003A4001165971000E0E7804030A1472388F18071
:1003B400A1677D8C09C82165971000E0E780E02ED5
:1003C400A5472388F1803244A244124941017300B5
:1003D40020308D471CA3238901809DBF9377440857
:1003E400E38307D483C7418103C731819386418165
:1003F4001305F00F63FCE70098229307170093F7A7
:10040400F70F9CA293874186BA978823971000E040
:10041400E780400B09BB937704048DCF83C6218109
:10042400FD4713872181014563E2D7021C2313F999
:10043400F70F850793F7F70F1CA3971000E0E780E9
:10044400000993874184CA9788A30545971000E063
:10045400E780A002937704018DC737570040835784
:10046400078093E717002310F78083A7C18081CB0F
:10047400DC4391C783C521811385418482972389F5
:100484000180E38204CA3705001013050540971064
:1004940000E0E78080210545971000E0E780E0FD5B
:1004A40059B123930182A3820182B7E700E03707A1
:1004B400000123A0E71083D70197375700405EABB4
:1004C40085837EA3B72700401716000003560698BD
:1004D4009386C74090C283C6074093E626002380D4
:1004E400D74083C6074093F6D60F2380D74083C6F0
:1004F400074093E646002380D7401C3393E7270048
:100504001CB31C2393E727001CA31387518201000B
:100514001C23F5DF8280B727004003C76740058BA3
:1005240039C785462383D74003D7618205072393C0
:10053400E18283D561821306F00513876182637AB1
:10054400B60203C707401377B70F2380E740375736
:1005540000401C2393F7D70F1CA3B7E700E037072D
:10056400000123A0E7180F100000A382D1827300BA
:1005740020301623171600001306468D9387C740B4
:10058400B3A6C62096221386019794C31E23B7569A
:100594000040B3A7C7209E23DEAA1E23B3A7C7200B
:1005A4009E238583FEA2E1B70145971000E0E78012
:1005B400C0DC11C50145971000E0E780A0DD7300A1
:1005C4002030B717004013070002239EE70873008A
:1005D400203079714ECE8146AA8901468145114564
:1005E40022D426D206D64AD052CC56CA371400405A
:1005F400971000E0E78000178347E4049304800821
:1006040093E7370073B70480137787083AC00F1055
:100614000000930A700523005405130A80FA23008E
:1006240044050F10000023020402230004040247BF
:10063400732707800F10000073B7048013778708AF
:100644003AC20F10000023005405230044050F1084
:1006540000002307F404230004049247F3A707804F
:100664000F10000037F900E0832709D11305900526
:10067400130909D093E747002328F9007928F3B731
:10068400048093F787083EC40F100000230054052C
:10069400230044050F1000009399F9282310340314
:1006A40023000404A247F3A707800F100000832748
:1006B4000901DD9B2328F90073005010010001009B
:1006C4008146014681451145971000E0E780800985
:1006D400F3B4048093F4840826C60F1000002300AA
:1006E4005405230044050F100000FD575EB48347F2
:1006F400640493E717002303F40423000404B247BB
:10070400F3A707800F100000B250225492540259EC
:10071400F249624AD24A456182809307000C011172
:100724006318F50493078008F3B7078093F78708E5
:100734003EC00F100000B717004013077005238058
:10074400E704130780FA2380E7040F100000F8374A
:1007540013670704F8B798271367070C98A7238033
:1007640007048247F3A707800F1000000561828009
:10077400B7170040B827118B69EB83C6E70413074A
:10078400800893F6F60F733607801376860832C214
:100794000F1000001308700523800705930580FAE5
:1007A4002380B7040F10000003C6E7041366360065
:1007B4002387C704B02713664600B0A72380070425
:1007C4001246732606800F10000090271376F60F4A
:1007D40073370780137787083AC40F10000023800B
:1007E40007052380B7040F10000098271367070C30
:1007F40098A723800704A247F3A707800F100000DF
:10080400A5470100FD1793F7F70FE5FF930780084D
:10081400F3B7078093F787083EC60F100000B71799
:100824000040130770052380E704130780FA238030
:10083400E7040F10000090A72387D7042380070440
:10084400B247F3A707800F1000009377050C130736
:100854000004639DE70893078008F3B7078093F7C4
:1008640087083EC80F100000B71700401307700533
:100874002380E704130780FA2380E7040F100000A5
:10088400B827854613670701B8A737270040A30395
:10089400D7808346578093E60601A302D78023803E
:1008A4000704C247F3A707800F10000093078008CE
:1008B400F3B7078093F787083ECE0F100000B717F1
:1008C4000040130770052380E704130780FA238090
:1008D400E7040F100000F8371375F50F13670704CA
:1008E400F8B788A723800704F247ADBD9377F501D5
:1008F4009DCF93078008F3B7078093F787083ECA14
:100904000F100000B7170040130770052380E70499
:10091400130780FA2380E7040F10000037270040F4
:100924008946A303D78023800704D247A5BF930732
:100934008008F3B7078093F787083ECC0F100000B8
:10094400B7170040130770052380E704130780FAE4
:100954002380E7040F100000372700409D46A303BF
:10096400D78023800704E24735BF41118146014601
:1009740081451145971000E0E780C0DE1307800829
:10098400F337078093F787083EC40F100000B717AA
:100994000040130670052380C704930680FA238061
:1009A400D7040F100000FD55CEB723800704A245DD
:1009B400F3A505800F1000007337078013778708AD
:1009C4003AC60F1000002380C7042380D7040F10F9
:1009D400000003C76704136717002383E704238019
:1009E4000704B247F3A707800F10000001A001A07D
:1009F400E5473305F50201007D1575FD828041113F
:100A040022C406C62A841305803E7D14D537334498
:100A1400040875F8B2402244410182802303048013
:100A24001547A2872303E480010001002302A48068
:100A340003C7678062076187E34C07FE2382A780B0
:100A4400228783476780E207E187E3CC07FE828041
:100A54002303048015472303E480010001002302DB
:100A6400A480828083076480E3CE07FE230304808E
:100A7400828083076480E3CE07FE0345448082803E
:100A840083076480E3CE07FE2302A48082804111A1
:100A940026C44AC24EC006C61377F50BAD47AA89D1
:100AA4002E8995446306F70019455D37653F8D44EB
:100AB4004E85793FFD59FD1463983401B240A24438
:100AC4001249824941018280135509011375F50FBA
:100AD400453F2209CDB7011126CC06CEB704080044
:100AE40051371545B537713769372AC6A53F3245A1
:100AF4009377150089EB136515001375F50FF24014
:100B0400E24405618280FD14E9FC0145CDBF411139
:100B140006C6B7170040130770052380E7041307C0
:100B240080FA2380E70403C747041305F00F136713
:100B3400070E2382E70491472303F480C535B240AE
:100B440041010DB7011126CC4ACA4EC852C606CE81
:100B54002A89AE89B284554A5D3F91E82137F24033
:100B640026855249E244C249324A05618280CA85D7
:100B74000945313F910903A7C9FF91472320E48028
:100B840003076480E34E07FE23034481FD17EDFB56
:100B9400FD14110981C49377F90FE9FF2D3F55FD29
:100BA400FD5475BF011126CC4ACA4EC852C656C45C
:100BB4005AC206CE2A89328A8D49913FC164C16ADC
:100BC400056B9387F4FFB3F7270199E363719A02E6
:100BD400FD199180E39709FE71350145F240E24425
:100BE4005249C249324AA24A124B05618280130516
:100BF400800D6388540113050002638464011305A6
:100C04001008CA856935C13D09C52699330A9A4039
:100C140075BF7D55E1B7011106CE26CC4ACAB28410
:100C24004EC82AC62E89E5353245FD14FD59AA85DC
:100C34002D45B13D639A34013535F240268552493C
:100C4400E244C249056182802D3593F7340091EB6B
:100C5400832604800327090093074900E39EE6FCEA
:100C64003E89FD14C1BF011106CE2AC64D35324559
:100C7400C533F2400561FDB3011106CE26CC4ACA44
:100C84004EC852C6AA8956C42E895135CE852D45E3
:100C9400FD3B81448D4A214AE93B639654018327F5
:100CA40004802320F9008504E39844FF832704800B
:100CB40013972901635C07002312F900F240E24410
:100CC4005249C249324AA24A056169BB2322F9004A
:100CD400F5B7411106C626C44AC24EC0AE89053DC9
:100CE40081451305B0046533BD447D59593393F7E9
:100CF4007400CE9703C70700FD14398D2380A70025
:100D0400E39624FFB240A24412498249410199BBAF
:100D1400411106C6ED3B130560061D3BA1331305C7
:0C0D240090093D33B240410135BB000096
:100D30009711002093818186172100201301812CB7
:100D40001305400097F5FF1F9385C52B170600205C
:100D5000130606FE63FAC5008322050023A0550092
:100D600011059105E3EAC5FE17250000130545DED0
:100D7000970500209385C5FB1386C18063FAC500E3
:100D80008322050023A0550011059105E3EAC5FE65
:100D90001385C180938501A36377B50023200500E7
:100DA0001105E36DB5FE93025002739002BC8D42B3
:100DB000739042808542739012BC930280087390B6
:100DC000023097F2FF1F9382E22393E23200739086
:100DD0005230970200009382823173901234730074
:100DE00020302A8309CA83830500230073007D16FF
:100DF000050385056DFA82802A8311C62300B3009E
:100E00007D16050365FE8280238D01800111054753
:100E1000238CE1802AC685451305003006CEA38BBE
:100E200001807923B247B725060011679306004079
:100E30001166938505A80145EF00A06B8545130554
:100E40000040992D854513050020B92585451305DA
:100E500000109925F240B7E700E03707004023A0D3
:100E6000E71005618280011126CA06CEB68422CC25
:100E70004AC84EC69306000263E9C60A83C6A1812A
:100E80002A841389A181795599E209EA0145F24042
:100E90006244D2444249B2490561828089462300B6
:100EA000D900238CE1802388018013854188A38A9F
:100EB000C180238B01803537A38C018083C791814A
:100EC0000604C18F0145A38CF180692303C771819A
:100ED0008547938991816317F704A38B0180375469
:100EE000004003C50900E92B83574481918BF5FB32
:100EF0008545130500404D23854513050020692BCA
:100F0000854513050010492B91C489470347090003
:100F1000E30EF7FE83C70181B5DB03C5018133050D
:100F2000A040B5B705453123C5B77D558DB79307AB
:100F3000000263EAC70E011152C406CE22CC26CAB3
:100F40004AC84EC656C25AC083C7A1812A88138A8E
:100F5000A1817955DDE73284014545C6854A2300E4
:100F60005A01238CD18023880180238B018013892F
:100F700091819307F6FF23005901BA84A38AF18077
:100F8000834709000608AE89B3E7070193F7F70F17
:100F90002300F900C12183C77181639E5707A38B8A
:100FA0000180B75A004003450900192B83D74A81B5
:100FB000918BF5FB854513050040F92985451305FF
:100FC0000020D929854513050010F9210149854ADA
:100FD0007D5B83470A00639C57010545970000200D
:100FE000E78020A20509E38664FFE34499FE83C7F6
:100FF000618163E587022286938541884E85D533DA
:101000002285F2406244D2444249B249224A924A7D
:10101000024B05618280054529294DBF03C46181CA
:101020001374F40FC9BF7D558280011195470547A0
:10103000854605469305B100614506CEDC8523163D
:1010400001001535635E0500AA851725000013050C
:10105000A59CEF00900341657D15F24005618280FB
:101060006C001307803E854609466145C9358547B2
:10107000AA8563C7A700172500001305659BD1BF8C
:101080003C8613958700A1835D8D33450508F1B734
:10109000B72506004111930720041167930600400D
:1010A0001166938505A8014506C622C4992113053A
:1010B00020046164913B1304046A37050200752320
:1010C0000DC17D147DF837570040835707809397F3
:1010D000F7282310F78083570780C607C58323109E
:1010E000F780B240224441018280397122DC3714FA
:1010F00000401E2C71777D1706DEF98F26DA4ED65A
:101100004AD852D456D25AD05ECE1EAC1945212CA4
:101110001305600497F0FF1FE78060603E2C0947CD
:101120009145B3C7070893F7F7F3B3C707083EAC79
:101130003E2C11459389218293E707043EACB727E3
:1011400000402380E74003C7074093840182136770
:1011500017012380E74003C7074013670708238070
:10116000E74003C72740136717002381E74089241E
:10117000B757004005479AAFB82313676700B8A375
:10118000013F9307C0072390F900930730069EA004
:101190005922630305144947D947938AB18183C50E
:1011A0000A001389E1811384C1811EA02310E90084
:1011B0002EC6252AB2452A861385418A252A93857B
:1011C00041829C21138A418A138B0197970B00203F
:1011D000938BCBC7A9EB03DE0900035F090003D3A0
:1011E0000400835E04005286FD5F9308000683437B
:1011F0000600939617001D4733D5E3486DE17288CA
:101200007A85B302DB00239002013388DB002310D0
:10121000A8007D178906E311F7FFA1070506E398EB
:1012200017FD85479CA1113583C70A0003D3090028
:10123000835E0900850783D80400035E040093F7EA
:10124000F70F2380FA00A304FA002315AA001386DF
:10125000418A930780047D5F13080006834296004D
:10126000939617001D47B3D5E248ADED1A85F68574
:10127000B30FDB002390AF003385DB000EA17D1799
:101280008906E312E7FFA1070506E39907FD97F03A
:10129000FF1FE78040211305200397F0FF1FE78021
:1012A000607597F0FF1FE78000201305200397F07B
:1012B000FF1FE7802074014597F0FF1FE780A031F2
:1012C000F2506254D2544259B259225A925A025B95
:1012D000F24B0145216182802D47B5477DBD1A88BB
:1012E000768505B74685F28561B717050020130599
:1012F00025A4828081472147B306F60003C8060073
:10130000B306F500850723800601E397E7FE8D47C6
:101310001CA50CB58280B7170040882719817D1560
:10132000133515008280371700408347E704120504
:101330004111BD8BC98F93F7F70F93068008F3B661
:10134000068093F6860836C60F10000093067005D7
:101350002300D704930680FA2300D7040F1000005F
:101360002307F70423000704B247F3A707800F10F1
:10137000000041018280B717004011E503C5070353
:1013800013750508828003C5070313750504828061
:1013900009C58547630AF5008280B7170040130727
:1013A00000022388E7028280B71700404147D5BF7B
:1013B000914763ECB704971700009387A768B3C5FC
:1013C000F52098413E97B71700409387470B028757
:1013D000944337170040B3F6A64094C39306070B17
:1013E0009C42B3F7A74019A8944337170040B3F6BF
:1013F000A64094C39306070B9C42C98F9CC29307D7
:10140000070A98433377A74098C3828094433717DD
:101410000040C98ED9B798433377A74098C3B71710
:1014200000409387070A9843498FF9BF9843498F33
:10143000F5B7375700408357078011C593E707106A
:101440002310F7808280B3C7070893F7F7EFB3C77D
:101450000708FDB7375700408357078011C593E74A
:1014600007202310F7808280B3C7070893F7F7DFC0
:10147000B3C70708FDB7375700408357078011C52A
:1014800093E707402310F7808280B3C7070893F7DC
:10149000F7BFB3C70708FDB73345050889C93757F4
:1014A000004083574780C98F2312F7808280B75747
:1014B000004003D747803375A7402392A7808280DE
:1014C000B75700402398A7808280B757004003D5C4
:1014D00007811375F50F82803757004083570780C7
:1014E00011C59397F7282310F7808280C607C5831C
:1014F000DDBF011126CAB754004052C43E8A83D7CB
:10150000048006CE22CC4AC84EC656C25AC0939713
:10151000F7282A892390F48001452E84328BB68ADD
:10152000BA895D3F512A37480F0013080824335801
:10153000050383D74480B3C7070893F707FCB3C7F5
:1015400007082392F48083D74480B3E70701B3C729
:1015500007082392F48083D70480B3C70708F99B58
:10156000B3C707082390F480E1679387076A63E1B4
:10157000870A06043354850285671387C7FF11461F
:1015800033440408618F01C7FD173376F400050862
:101590009307F0033358F80AB7570040B755004097
:1015A0003348080823900783239EC58083D705808E
:1015B000F240624493E717002390F58083D70580BB
:1015C000D244024BB3C7070893F757BFB3C7070806
:1015D0002390F58003D505803365550133652501DA
:1015E000334505082390A58083D785802394058003
:1015F00083D685804249924AB3E7460133E73701F3
:10160000334707082394E580B249224A0561828066
:1016100063180B028D45B305B4020546B355B502F8
:10162000D205D18133F6C50A9307C0123308F802F8
:101630009307803E1316F6283358F8020508A9BF11
:10164000E5473304F40233568502520651821316DD
:10165000E628D9BFB757004003D7478103D5878114
:101660004205598D220521818280411102C4B7575C
:10167000004002C6938707803EC69357C5013EC40B
:10168000224722059357850019CB324751073AC6A6
:101690003247084341017D8D3335A00082803247B7
:1016A000C1836107EDB71345F5FFB75700403345D8
:1016B0000508239AA7808280B717004098279306D1
:1016C000000C1377070C6315D70003A58182828075
:1016D0009827930600041377070C6310D70294270A
:1016E00013070002FD8A99C298277D8B3745C323D3
:1016F000130505603345E502828094271307000235
:10170000FD8A99C298277D8B3755E801130505801E
:10171000D5B73285814737370040A14663C3A7005C
:1017200082800346B740E30ED6FE3386F5001022D2
:1017300085072304C740DDB797F6FF1F938606662B
:10174000AA878842138701A3AA9763E9E7000A875B
:10175000130707FC6364F7009CC282807D5582807A
:1017600001112A8706CE2E8526CCB2854ACA368636
:1017700022C637240040B7E700E0FD5603A9070062
:10178000C44323A0D71823A2D7189307F7FF93F7D2
:10179000F70F0948636AF808B717004083C7570472
:1017A000B7C80300F95763741505B306C50063E0B5
:1017B000D80463140705098297F0FF1FE780C0383B
:1017C000AA8737170040930670052300D7049306B5
:1017D00080FA2300D70483464704C18A2302D70432
:1017E00037E700E023202711232297103244F240EC
:1017F000E24452493E85056182808547631FF700B8
:101800008567FD173E96E98F3E96FD777D8E7D8D2F
:1018100097F0FF1FE780403965B797F0FF1FE7801B
:10182000C03F9307150071BFB547631AF700130552
:10183000900B97F0FF1FE7804043814759B7B147AE
:101840006315F7001305B00AEDB799476317F70062
:1018500097F0FF1FE7808042CDB79D47631BF700DD
:1018600023A0050023A2050097F0FF1FE780A046F4
:10187000E9B791476317F70097F0FF1FE7808049AA
:101880006DBF81471DDFF1572DBF5D7122D406D694
:101890002A842EDA32DC36DEBAC0BEC2C2C4C6C664
:1018A00017F5FF1F0325C54F11C51C4D81E72AC63B
:1018B000B12132450C455418228636CEEF00301047
:1018C000B250225461618280011122CC26CA4AC8DA
:1018D00006CE4EC6AA842E89328401C51C4D91E3E2
:1018E0003129971700009387271B6317F402C04024
:1018F0001C4C1CC45E24A18B99C31C4895EFA28587
:101900002685492015C97D59F2406244D244B24926
:101910004A85424905618280971700009387C71561
:101920006314F4008044E9B7971700009387C71247
:10193000E310F4FCC0446DBF1C4808409379F90FD4
:101940001379F90F1D8D5C486346F500A285268545
:10195000A12C55F91C440505FD171CC41C40138718
:10196000170018C0238037015C486388A7005E24F5
:10197000858BD9DBA947E319F9F8A28526852D24A3
:1019800041D551B7411122C426C24AC006C697F4B8
:10199000FF1F83A4E4402A892E8489C49C4C99E3C8
:1019A0002685A92E971700009387070F6313F4026B
:1019B000C0408317C40013F7870025E713F707011A
:1019C0000DEB25472320E90093E707045EA47D552E
:1019D00071A0971700009387270A6314F4008044CE
:1019E000C9BF9717000093872707E314F4FCC0448E
:1019F000C9B7918B9DC34C5889C99307440463842C
:101A0000F5004A85B92B232A04025E242322040010
:101A100093F7B7FD5EA41C481CC05E2493E78700C3
:101A20005EA41C4899EB5E241307002093F7072857
:101A30006385E700A2854A8561298317C40013F7EF
:101A400017001DC35848232404003307E04018CC76
:101A50001848014501E713F707083DF7B240224453
:101A6000924402494101828013F72700814611E325
:101A7000544814C4F1BF8397C500011122CC26CA73
:101A800006CE4AC84EC613F78700AA842E8479E38F
:101A9000D8416345E000B8416356E008585459C343
:101AA00003A9040023A004000C5093D7C748A9CB76
:101AB00070485E24918B99C75C401D8E5C5899C319
:101AC0003C401D8E5C540C50814626858297FD5704
:101AD000630CF5041C480567232204001CC05E2427
:101AE000F98F91C368C84C5823A0240185CD930772
:101AF00044046384F5002685AD21232A04021DA039
:101B00000146854626850297FD572A86E313F5FA96
:101B10009C40C5D375476385E70059476395E70641
:101B200023A024010145B5A098408317C40001CF2C
:101B3000F5466305D700D9466319D7041C4823220C
:101B400004001CC04DB718482322040093D7C7488F
:101B500018C041BF83A90501E38609FC03A905005C
:101B60008D8B23A0350133093941014791E3D849D1
:101B700018C4E35920FB1C540C50CA864E86268597
:101B80008297634FA0008317C40093E707045EA405
:101B90007D55F2406244D2444249B2490561828097
:101BA000AA993309A940F1B79C49411106C622C43C
:101BB00026C281EB8144B2402244268592444101F1
:101BC0008280AA842E8401C51C4D91E3052A9717B3
:101BD0000000938767EC631CF402C0408317C400C5
:101BE000F1DB7850058B11E793F7072099E3284C38
:101BF00051242685A28541357C50AA84858BC5FF5A
:101C00005E2493F70720C5FB284CB5246DB79717C2
:101C10000000938767E66314F4008044C1B7971708
:101C20000000938767E3E31BF4FAC04445BF41110A
:101C300022C406C62A844EA572A5232005002322AD
:101C40000500232405002322050623280500232A56
:101C50000500232C0500214681451305C505EFF03D
:101C6000AF9997170000938727835CD097170000E0
:101C7000938727851CD4971700009387E7885CD447
:101C8000971700009387278BB24000D01CD82244BE
:101C90004101828097050000938545F1BDA2411165
:101CA00026C2930780069384F5FFB384F4024AC0EA
:101CB0002E8922C406C693854407692E2A8401CD45
:101CC0002320050023222501310508C4138684063C
:101CD0008145EFF06F92B24022852244924402493E
:101CE000410182801385018371A21385018361A262
:101CF0001385418341A213854183B5AA411122C4B2
:101D000006C62A84F5371C4C89C72244B2404101DB
:101D1000DDB797070000938727F81CD42324040419
:101D2000232604042328040483A781806394870066
:101D300085471CCC22853D2048C02285252008C42B
:101D400022850D2048C4484001469145CD350844C0
:101D50000546A545E93D48440946C945C93D85476D
:101D60001CCC65B7411126C24AC006C622C42A89C6
:101D7000953F83A481809C4C99E3268541379384C9
:101D800084048044DC40FD1763D607009C40BDC33B
:101D90008440C5BF0317C40039EBC17785075CC415
:101DA0001305840523220406E920813721462320D8
:101DB0000400232404002322040023280400232AEF
:101DC0000400232C040081451305C405EFF0CF82E5
:101DD000232A0402232C04022324040423260404BB
:101DE000B240228522449244024941018280130478
:101DF000840651BF91454A855D3588C02A8449F9DA
:101E0000ED35B1472320F900E1BF797122D44AD0E2
:101E10004ECE52CC5AC85EC606D626D256CA2A899B
:101E20002E8A130485048149054BFD5B0444832AF3
:101E30004400FD1A63D00A0200406DF8B2502254EB
:101E400092540259624AD24A424BB24B4E85F249F1
:101E500045618280DE24637BFB008397E400638717
:101E60007701A6854A85029AB3E9A900938484067E
:101E7000C9B78280828082805971A2D42E848395D2
:101E8000E500A6D2CAD086D6B284368963D20502CE
:101E90005E2493F707088DEB13070040B6502654D5
:101EA0002320F90098C00659965401456561828047
:101EB0003000E12DE34E05FC3247BD67F98F79779D
:101EC000BA9793B71700C9BF814713070004F9B742
:101ED000DE25797122D406D626D24AD04ECE898B01
:101EE0002E8491CF930774041CC01CC885475CC81E
:101EF000B250225492540259F249456182807400D2
:101F00003000AA84953FA2492A892685CE85992248
:101F100019E98317C40013F7072079FBF19B93E7B6
:101F200027005EA4C1B7970700009387E7D69CD42B
:101F30005E2408C008C893E707085EA4B247232AB6
:101F4000340199CB8315E4002685A52511C55E24AF
:101F5000F19B93E717005EA45E2433E527014AA4B2
:101F600041BFD1CD83A7C5FF011122CC06CE13847A
:101F7000C5FF63D307003E942AC645251387C18356
:101F80001C43324581EB2322040000C36244F2402B
:101F9000056141AD637DF4001040B306C400639653
:101FA000D7009443DC43B29614C05CC0F9BF3E87AF
:101FB000DC4399C3E37DF4FE14433306D700631F6B
:101FC00086001040B29614C33306D700E390C7FCD6
:101FD0009043DC43B29614C35CC34DBF6375C40029
:101FE000B1471CC165B71040B306C4006396D70063
:101FF0009443DC43B29614C05CC040C341BF8280AE
:1020000041114AC0138981838327090022C426C253
:1020100006C6AA842E8489E7814589292320A90040
:10202000A2852685A1217D59631A25017D54B240E0
:1020300022852244924402494101828013043500E2
:102040007198E30685FEB305A44026850521E310BB
:1020500025FFE9BF011126CA93843500F1984AC8CB
:10206000A104B14706CE22CC4EC62A89B3F4F40AA5
:1020700063C4040063FDB400B1472320F9000145A7
:10208000F2406244D2444249B249056182807123E0
:102090009389C18383A709003E8431E4A6854A85DC
:1020A0008537FD572A846316F50A03A40900A28721
:1020B000C1EB8329040081454A85A299452E63948A
:1020C000A9081C408D044A859D8CF198B147A10454
:1020D000B3F4F40AA6852D37FD576306F5061C40B8
:1020E000A6971CC015A01440858E63C806042D4712
:1020F000637DD70204C0330794006396870223A050
:10210000E9005C4014C35CC34A85212B1305B4006D
:102110009307440061993307F540E303F5F63A94D9
:10212000898F1CC0B1BFD8C3E9BF584063958700F1
:1021300023A0E900D1BFD8C3C1BFA2874040B1BF2F
:102140003E84DC43B5B7B1472320F9004A85D12945
:102150003DB704C155BF1C46FD171CC663DA070016
:10216000184E63C5E700A9476394F5006FF0CFF5FB
:102170001C422E851387170018C28CA38280011180
:1021800022CC26CA4AC84EC652C406CE2A89AE8977
:102190003284B304D6007D5A63149400014501A82B
:1021A0000C204E864A85453F0504E31745FFF24063
:1021B0006244D2444249B249224A05618280357163
:1021C00022CD26CB4AC94EC706CF52C556C35AC1E7
:1021D000DEDEE2DCAA892E843289B68401C51C4D7C
:1021E00091E3293E971700009387078B6317F40448
:1021F00003A449007C50858B99E75E2493F7072060
:1022000099E3284C85395E24A18B99C31C48B9EF0A
:10221000A2854E85EFF00FF731C97C50858BA1C3A5
:102220007D55FA406A44DA444A49BA492A4A9A4AE8
:102230000A4BF65B665C0D618280971700009387FE
:10224000A7836315F40003A489006DB797170000F6
:1022500093878780E310F4FA03A4C90061BF5E246A
:1022600093F70720D5FF284C39315DBF9307000253
:10227000A304F1029307000302D22305F10226C64C
:10228000930B5002971A0000938A0A83294BCA8441
:102290009C2099C363997709338C2441638D240171
:1022A000E2864A86A2854E85D93DFD576306F5181C
:1022B0009257E2973ED29C2063800718FD571389FE
:1022C000140002C802CE3ECA02CCA309010482D483
:1022D00083450900154656852D26C24793041900EB
:1022E00029E513F7070109C713070002A309E10451
:1022F00013F7870009C71307B002A309E104834657
:1023000009001307A0026389E602F247CA848146E6
:102310002546982093851400130707FD6372E6068F
:1023200085C63ECE15A08504A5B733055541B397A4
:10233000A72826893EC869BF32479306470018433D
:1023400036C6634807023ACE98209307E002631C22
:10235000F70498309307A002631AF702B247890482
:10236000138747009C433AC67D57B3E7E70A3ECA46
:102370001DA83307E04093E727003ACE3EC8E9B7EF
:10238000B3876703AE848546BA9761B7850402CAEE
:10239000814681472546982093851400130707FD41
:1023A0006372E606E9F68C200D461705000013055A
:1023B0002571812C11CD97070000938767701D8DC3
:1023C000C247130700043317A700D98F85043EC8FE
:1023D0008C201946170500001305C56E13891400DB
:1023E0002304B102392C2DC99307000095E7424719
:1023F000B2471377071009CF91073EC69257D2977D
:102400003ED271B5B3876703AE848546BA9761B78C
:102410009D07E19BA107D5B778009706000093863A
:1024200046D622860C084E8597000000E700000083
:10243000FD572A8AE314F5FC7C50858B99E75E24CE
:1024400093F7072099E3284C3D345E2493F7070463
:10245000E39807DC1255F1B37800970600009386E5
:1024600046D222860C084E85F124D9B7411122C4E8
:102470002A842E8523A0018406C6EFF0EFABFD571A
:102480006316F50083A7018491C31CC0B2402244A7
:1024900041018280411122C42E848395E50006C645
:1024A0003123634905007C48AA977CC8B240224486
:1024B000410182805E249397C7485EA4C5BFDE2594
:1024C000011122CC26CA4AC84EC606CE93F7071081
:1024D000AA842E843289B68991C78395E5008946FE
:1024E0000146DD285E248315E400F2409397C74837
:1024F0005EA46244CE864A86B24942492685D244C9
:1025000005611DA8411122C42E848395E50006C6ED
:10251000E1207D575E246319E5009397C7485EA4C8
:10252000B2402244410182809397C72868C85EA4C4
:10253000C5BF8395E5003DA0411122C42A842E85A4
:10254000B285368623A0018406C6EFF08F9CFD5726
:102550006316F50083A7018491C31CC0B2402244D6
:1025600041018280411122C42A842E8523A0018446
:1025700006C69521FD576316F50083A7018491C314
:102580001CC0B240224441018280411122C42A84ED
:102590002E85B28523A0018406C6A121FD576316AE
:1025A000F50083A7018491C31CC0B24022444101BD
:1025B0008280411122C42A842E8523A0018406C66C
:1025C0003D21FD576316F50083A7018491C31CC00C
:1025D000B240224441018280411122C42A842E85C6
:1025E000B285368623A0018406C60129FD576316ED
:1025F000F50083A7018491C31CC0B240224441016D
:10260000828093F5F50F2A966314C50001458280F8
:102610001C21E38EB7FE0505C5BF1385C1826FF08F
:102620007F851385C1826FF01F85797156CA9C49D9
:10263000BA8A984522D44AD04ECE52CC06D626D25B
:102640005AC85EC6B3E7E70A1CC203C73504AA89A5
:102650002E843289368A19C385071CC21C4093F721
:10266000070291C78327090089072320F900044046
:10267000998891E8130B9401FD5B5C4403270900E2
:10268000998F63CCF40483473404B336F0001C40C4
:1026900093F70702A5EB13063404D2854E85829A80
:1026A000FD576303F5041C4011478144998B6399DE
:1026B000E7008327090044449D8C8147B3E4F40A72
:1026C0001C4418486354F700998FBE94014969046B
:1026D0007D5B63982405014509A885465A86D28505
:1026E0004E85829A631E75017D55B25022549254D4
:1026F0000259F249624AD24A424BB24B456182804A
:102700008504A5BF3307D40013060003A301C70443
:102710000347540493871600A2978906A381E70410
:102720009DBF85462286D2854E85829AE30E65FB43
:10273000050945B7797122D44AD04ECE52CC06D67F
:1027400026D256CA5AC803C88501930780072A892A
:102750002E84B289368A63E20703930720069386A4
:10276000350463E10703630B081C93078005170614
:1027700000001306A6356307F8149304240423010C
:10278000040515A89307D8F993F7F70F5546E366A4
:10279000F6FE170600001306E635B3C7C7209C43B4
:1027A000B29782871C4393842504938647009C43F9
:1027B00014C32381F504854765A290411C4313751A
:1027C00006089385470029C19C430CC3584063DE2B
:1027D00007129305D002A301B40418C4635E070274
:1027E000B307F040170600001306462E2948B684AA
:1027F00033F70703FD143297182398A03E87B3D709
:102800000703E37707FF85A09C43137506040CC3F9
:1028100055DD939757605DBF6D9A10C0D1B7904159
:102820001C43137506089385470001C50CC39C43E0
:1028300031A0137606040CC37DDA9E231307F0063D
:102840001706000013068628631FE80A2148A30123
:102850000404584018C4E34C07F80C40ED990CC030
:10286000D9F7B68449F7A147631EF8001C40858B51
:1028700091CB58401C4863C7E70093070003A38F20
:10288000F4FEFD14858E14C85287CE867000A28592
:102890004A85613BFD5A6319550D7D55B25022544E
:1028A00092540259F249624AD24A424B45618280AF
:1028B0009C4193E707029CC113088007170600009C
:1028C00013060622A30204050C401C4313F8050856
:1028D000138547006305080008C39C4339A013F81B
:1028E000050408C3E30B08FE9E2313F7150001C778
:1028F00093E505020CC099C3414891BF1840137776
:10290000F7FD18C0D5BF294899B717060000130670
:10291000E61B29483DBF90411C43CC49137806086B
:10292000138547006306080008C39C438CC339A085
:1029300008C3137606049C4375DA8EA3232804008B
:10294000B68499B71C43D04181459386470014C390
:10295000844326857D3101C5B30795405CC05C404A
:102960001CC8A30104040DB714482686CE854A85E9
:10297000029AE30455F31C40898B85E74844B2472B
:102980003365F50A21BF85465686CE854A85029A6B
:10299000E30565F185045C443247998FE3C5F4FE95
:1029A000F1BF8144930A94017D5BF5B7411122C4C4
:1029B0002A842E85B285368623A0018406C6A120EE
:1029C000FD576316F50083A7018491C31CC0B24074
:1029D0002244410182809307800523A0F1847D5524
:1029E00082809307800523A0F1847D558280930720
:1029F000800523A0F184014582809307800523A0F0
:102A0000F1847D5582809307800523A0F1847D5554
:102A100082800000493243205772697465204572F4
:102A2000726F723A2025640A000000004932432088
:102A300052656164204572726F723A2025640A0003
:102A400090E9FFFFA8E9FFFFCCE9FFFFD6E9FFFF10
:102A5000ECE9FFFF000000000000000000000000A3
:102A60000000000000000000000000000000000066
:102A70000000000000000000000000000000000056
:102A80000000000000000000000000000000000046
:102A90000000000000000000000000000000000036
:102AA0000000000000000000000000000000000026
:102AB00000000000232D302B20000000686C4C002B
:102AC0006566674546470000303132333435363766
:102AD000383941424344454600000000303132332A
:102AE000343536373839616263646566000000004A
:102AF000B4FCFFFFCAFCFFFF8AFCFFFF8AFCFFFF5C
:102B00008AFCFFFF8AFCFFFFCAFCFFFF8AFCFFFF75
:102B10008AFCFFFF8AFCFFFF8AFCFFFF26FEFFFF07
:102B20002EFDFFFFC0FDFFFF8AFCFFFF8AFCFFFFB9
:102B300054FEFFFF8AFCFFFF2EFDFFFF8AFCFFFF14
:082B40008AFCFFFFC8FDFFFF46
:022B480001A0EA
:102B4C00AAAAAAAA930B51DE000000000000000004
:102B5C00942A0000742A0000542A0000000000008F
:102B6C000000000000000000000000000000000059
:102B7C000000000000000000000000000000000049
:102B8C000000000000000000000000000000000039
:102B9C000000000000000000000000000000000029
:102BAC00000000000000000000000000C80F002022
:082BBC00380D0020380D002047
:00000001FF
