:040000006F0010304D
:100004000000000000000000141D0000380700205C
:10001400A9BDF9F3141D0000000000000000000059
:10002400141D0000141D000000000000000000006A
:10003400141D000000000000141D0000000000005A
:10004400000000009000002000000000141D0000CB
:10005400141D0000141D0000141D00000000000009
:10006400141D00000000000000000000141D00002A
:10007400141D0000141D0000141D0000141D0000B8
:1000840000000000141D000000000000141D00000A
:10009400B717004013070002239EE70873002030BF
:1000A4004111814601468145114506C6971000E07D
:1000B400E78040EDB727004011472383E780B7F777
:1000C40000E0938707D0984B6D9B98CB984B5D9B32
:1000D40098CB7300501001000100B24041018280AE
:1000E4000111814601468145114506CE971000E075
:1000F400E78040E9B727004011472383E780B7171B
:10010400004083C6E704BC2793F6F60FA18B99E35E
:1001140093E6360013078008F337078093F78708C0
:100124003EC00F100000B7170040930570052380F0
:10013400B704130680FA2380C7040F10000023823B
:100144000702238007040245732505800F10000071
:1001540073350780137585082AC20F1000002380A9
:10016400B7042380C7040F1000002387D70423801B
:1001740007049246F3A606800F100000F3360780AA
:1001840093F6860836C40F1000002380B70423803A
:10019400C7040F10000083C6B70493E60602A385C4
:1001A400D70423800704A246F3A606800F1000009C
:1001B400B7F600E0938606D0884A1365450088CADE
:1001C400884A5D9988CA7300501001000100733792
:1001D4000780137787083AC60F1000002380B704FE
:1001E4002380C7040F10000003C7B7041377F70D6B
:1001F400A385E70423800704B247F3A707800F1001
:100204000000F24005618280B717004003C88700F0
:10021400B82783C5E70401111378F80F93E5350077
:1002240013078008F336078093F6860836C40F1048
:100234000000130670052380C704930680FA238008
:10024400D7040F1000002382070223800704A2486A
:10025400F3A808800F100000F338078093F888088B
:1002640046C60F1000002380C7042380D7040F1054
:1002740000002387B70423800704B245F3A5058053
:100284000F100000B7F500E0938505D083A80501A1
:1002940093E8480023A81501E57891083365150112
:1002A40033450508F338078093F8880846C80F10CB
:1002B40000002380C7042380D7040F10000083C8E4
:1002C400F70093E80804A38717018AB3238007047F
:1002D4004245732505800F100000733507801375A0
:1002E40085082ACA0F1000002380C7042380D7047E
:1002F4000F1000001305900588A7238007045245BA
:10030400732505800F10000088495D9988C9730022
:10031400501001000100F335078093F585082ECCB9
:100324000F1000002380C7042380D7040F1000009F
:100334002384070123800704E245F3A505800F10F9
:10034400000073370780137787083ACE0F10000038
:100354002380C7042380D7040F1000009A33F1765A
:10036400FD16460745839AB39A33758F9AB3238053
:100374000704F247F3A707800F100000130580025B
:1003840005612DA9397156D28146AA8A0146814553
:10039400114522DC26DA06DE4AD84ED652D437146A
:1003A4000040971000E0E780E0BD8347E404930435
:1003B400800893E7370073B70480137787083AC639
:1003C4000F100000130A700523004405930980FAF6
:1003D400230034050F100000230204022300040448
:1003E4003247732707800F10000073B70480137718
:1003F40087083AC80F100000230044052300340581
:100404000F1000002307F40423000404C247F3A7D9
:1004140007800F10000037F900E0832709D1130586
:100424009005130909D093E747002328F900E92030
:10043400F3B7048093F787083ECA0F100000230027
:100444004405230034050F1000007C3493E70704AF
:100454007CB423000404D247F3A707800F100000E4
:10046400F3B7048093F787083ECC0F1000002300F5
:100474004405230034050F100000939AFA28231032
:10048400540323000404E247F3A707800F1000007D
:1004940083270901DD9B2328F90073005010010014
:1004A40001008146014681451145971000E0E7802F
:1004B40060ADF3B4048093F4840826CE0F100000DA
:1004C40023004405230034050F100000834764040F
:1004D40093E717002303F40423000404F247F3A76B
:1004E40007800F100000F2506254D2544259B2599E
:1004F400225A925A216182809307000C01116314DD
:10050400F50493078008F3B7078093F787083EC084
:100514000F100000B7170040130770052380E7048D
:10052400130780FA2380E7040F100000982713674D
:10053400070C98A7238007048247F3A707800F10AE
:10054400000005618280B7170040B827118B69EB62
:1005540083C6E7041307800893F6F60F7336078003
:100564001376860832C20F1000001308700523802A
:100574000705930580FA2380B7040F10000003C613
:10058400E704136636002387C704B02713664600C2
:10059400B0A7238007041246732606800F100000BC
:1005A40090271376F60F73370780137787083AC4BA
:1005B4000F100000238007052380B7040F100000EC
:1005C40098271367070C98A723800704A247F3A76B
:1005D40007800F100000A5470100FD1793F7F70FE0
:1005E400E5FF93078008F3B7078093F787083EC6B3
:1005F4000F100000B7170040130770052380E704AD
:10060400130780FA2380E7040F10000090A72387C4
:10061400D70423800704B247F3A707800F10000014
:100624009377050C130700046399E7089307800880
:10063400F3B7078093F787083EC80F100000B71779
:100644000040130770052380E704130780FA238012
:10065400E7040F100000B827854613670701B8A701
:1006640037270040A303D7808346578093E60601CB
:10067400A302D78023800704C247F3A707800F1083
:10068400000093078008F3B7078093F787083ECEEE
:100694000F100000B7170040130770052380E7040C
:1006A400130780FA2380E7040F1000001375F50F79
:1006B40088A723800704F24749B59377F5019DCFB6
:1006C40093078008F3B7078093F787083ECA0F1093
:1006D4000000B7170040130770052380E7041307D1
:1006E40080FA2380E7040F10000037270040894672
:1006F400A303D78023800704D24741B79307800818
:10070400F3B7078093F787083ECC0F100000B717A4
:100714000040130770052380E704130780FA238041
:10072400E7040F100000372700409D46A303D7803D
:1007340023800704E24791B7411181460146814570
:100744001145971000E0E780E08313078008F33732
:10075400078093F787083EC40F100000B7170040C6
:10076400130670052380C704930680FA2380D704F8
:100774000F100000FD55CEB723800704A245F3A552
:1007840005800F10000073370780137787083AC677
:100794000F1000002380C7042380D7040F1000002B
:1007A40003C76704136717002383E7042380070440
:1007B400B247F3A707800F10000001A0E5473305F7
:1007C400F50201007D1575FD8280411122C406C623
:1007D4002A841305803E7D14D5373344040875F804
:1007E400B240224441018280230304801547A2873A
:1007F4002303E480010001002302A48003C767806F
:1008040062076187E34C07FE2382A7802287834720
:100814006780E207E187E3CC07FE8280230304803C
:1008240015472303E480010001002302A480828091
:1008340083076480E3CE07FE23030480828083075A
:100844006480E3CE07FE034544808280830764808E
:10085400E3CE07FE2302A4808280411126C44AC24B
:100864004EC006C61377F50BAD47AA892E89954469
:100874006306F70019455D37653F8D444E85793F22
:10088400FD59FD1463983401B240A24412498249CF
:1008940041018280135509011375F50F453F220963
:1008A400CDB7011126CC06CEB70408005137154543
:1008B400B537713769372AC6A53F32459377150096
:1008C40089EB136515001375F50FF240E2440561D9
:1008D4008280FD14E9FC0145CDBF411106C6B7175E
:1008E4000040130770052380E704130780FA238070
:1008F400E70403C747041305F00F1367070E2382A9
:10090400E70491472303F480C535B24041010DB794
:10091400011126CC4ACA4EC852C606CE2A89AE89CF
:10092400B284554A5D3F91E82137F2402685524909
:10093400E244C249324A05618280CA850945313F91
:10094400910903A7C9FF91472320E480030764802A
:10095400E34E07FE23034481FD17EDFBFD1411094B
:1009640081C49377F90FE9FF2D3F55FDFD5475BF01
:10097400011126CC4ACA4EC852C656C45AC206CE23
:100984002A89328A8D49913FC164C16A056B938774
:10099400F4FFB3F7270199E363719A02FD1991807B
:1009A400E39709FE71350145F240E2445249C249D8
:1009B400324AA24A124B056182801305800D638876
:1009C4005401130500026384640113051008CA85E9
:1009D4006935C13D09C52699330A9A4075BF7D55CD
:1009E400E1B7011106CE26CC4ACAB2844EC82AC643
:1009F4002E89E5353245FD14FD59AA852D45B13DB5
:100A0400639A34013535F24026855249E244C2499D
:100A1400056182802D3593F7340091EB83260480A1
:100A24000327090093074900E39EE6FC3E89FD1471
:100A3400C1BF011106CE2AC64D353245C533F24039
:100A44000561FDB3011106CE26CC4ACA4EC852C672
:100A5400AA8956C42E895135B7050400B3E5B900F7
:100A64002D45E53B81448D4A214AD13B639654018F
:100A7400832704802320F9008504E39844FF832717
:100A8400048013972901635C07002312F900F240E4
:100A9400E2445249C249324AA24A056151BB232267
:100AA400F900F5B7411106C626C44AC24EC0AE8944
:100AB4002D3581451305B0044D33BD447D59413373
:100AC40093F77400CE9703C70700FD14398D238074
:100AD400A700E39624FFB240A2441249824941018F
:100AE40081BB411106C6D53B13056006053B89331E
:0C0AF400130590092533B24041011DBBE1
:100B00009711002093810186172100201301814F46
:100B10001305400097F5FF1F9385C54E170600206B
:100B2000130606FE63FAC5008322050023A05500C4
:100B300011059105E3EAC5FE171500001305051E12
:100B4000970500209385C5FB1386C18063FAC50015
:100B50008322050023A0550011059105E3EAC5FE97
:100B60001385C180938541826377B50023200500FA
:100B70001105E36DB5FE93025002739002BC8D42E5
:100B8000739042808542739012BC930280087390E8
:100B9000023097F2FF1F9382E24693E23200739095
:100BA0005230970200009382020273901234730055
:100BB00020302A8311C62300B3007D16050365FE8D
:100BC00082804111194506C63D2A0945970000203B
:100BD000E780C09285457D55BD2A0565130585389A
:100BE00097000020E780A0BE854513050002A522DE
:100BF000894513050002CD22B7E700E03707020060
:100C000023A0E7101D46C14505458924171500009E
:100C1000130505055D23294597000020E78020BBCB
:100C200097F0FF1FE78000481305803E97000020E3
:100C3000E780E0B9171500001305C503BD2B294552
:100C400097000020E780A0B897F0FF1FE780804959
:100C500005459D20294597000020E78040B71305F2
:100C6000803E97000020E78080B61715000013052E
:100C7000A501A123294597000020E78040B529451B
:100C800097F0FF1FE78080581305803E97000020F3
:100C9000E780E0B3294597000020E78040B3014595
:100CA00097F0FF1FE780406E0545392017150000BB
:100CB0001305C5FE192301A0B717004003C7E704B9
:100CC0000D8941111377C70F498F93068008F3B63A
:100CD000068093F6860836C60F100000930670054E
:100CE0002380D704930680FA2380D7040F100000D6
:100CF0002387E70423800704B247F3A707800F1078
:100D0000000041018280371700408347E704120545
:100D10004111BD8BC98F93F7F70F93068008F3B687
:100D2000068093F6860836C60F10000093067005FD
:100D30002300D704930680FA2300D7040F10000085
:100D40002307F70423000704B247F3A707800F1017
:100D5000000041018280914763ECB70497170000BF
:100D6000938747F4B3C5F52098413E97B7170040E5
:100D70009387470B0287944337170040B3F6A6408A
:100D800094C39306070B9C42B3F7A74019A894435A
:100D900037170040B3F6A64094C39306070B9C4256
:100DA000C98F9CC29307070A98433377A74098C31B
:100DB0008280944337170040C98ED9B79843337760
:100DC000A74098C3B71700409387070A9843498FF5
:100DD000F9BF9843498FF5B7894733470508638BB7
:100DE000F50463E2B7021346F7FF9DE9B717004029
:100DF00083D64709F18E239AD7089387C70A94436D
:100E0000C98E94C321A08D47638CF502B7170040AB
:100E1000239EE70883D60709558F2398E708828029
:100E2000B717004083D64709F18E239AD7089387D6
:100E3000870AF1B7B717004083D64709D98E65BF37
:100E4000B717004083D64709D98EC5B7411139E19C
:100E500093078008F3B7078093F787083EC00F1009
:100E60000000B7170040130770052380E70413073D
:100E700080FA2380E7040F100000F827B375B7400D
:100E8000ECA7238007048247F3A707800F10000018
:100E90004101828013078008F337078093F78708A2
:100EA0003EC20F100000B7170040130870052380E2
:100EB0000705130580FA2380A7040F100000F4270C
:100EC000CD8E93E60604F4A7238007049246F3A68A
:100ED00006800F100000F336078093F6860836C4AC
:100EE0000F100000238007052380A7040F100000C7
:100EF000F43793F6860FF4B723800704A246F3A6CF
:100F000006800F10000073370780137787083AC6F2
:100F10000F100000238007052380A7040F10000096
:100F2000F837598E1376F60FF0B723800704B247CF
:100F3000A1BF3285814737370040A14663C3A70070
:100F400082800346B740E30ED6FE3386F5001022BA
:100F500085072304C740DDB797060020938686C027
:100F6000AA87884213874182AA9763E9E7000A8724
:100F7000130707FC6364F7009CC282807D55828062
:100F800001112A8706CE2E8526CCB2854ACA36861E
:100F900022C637240040B7E700E0FD5603A907004A
:100FA000C44323A0D71823A2D7189307F7FF93F7BA
:100FB000F70F894663E0F60AB717004083C7570466
:100FC000B706040093F7070299E3B7C60300F95781
:100FD0006375D5043308C50063E1060589476314CA
:100FE000F704098297000020E780C092AA8737178C
:100FF0000040930670052300D704930680FA23006F
:10100000D70483464704C18A2302D70437E700E0A8
:1010100023202711232297103244F240E244524900
:101020003E85056182808547631FF7008567FD1750
:101030003E96E98F3E96FD777D8E7D8D9700002050
:10104000E780409365B797000020E780C099930739
:10105000150071BFB547631AF7001305900B970091
:101060000020E780409D814759B7B1476315F700DD
:101070001305B00AEDB799476317F70097000020F2
:10108000E780809CCDB79D47631BF70023A0050038
:1010900023A2050097000020E78000A1E9B791474F
:1010A0006317F70097000020E780E0A36DBF81473A
:1010B0001DDFF1572DBF011126CA06CE22CC4AC82A
:1010C0004EC652C4AA8419E11C4502901C4D2E89BB
:1010D000ADE325239C4C8044B9CF9717000093873C
:1010E000A7C1631DF404C0407C50858B99E75E2442
:1010F00093F7072099E3284CAD2D5E24A18B99C36B
:101100001C48D5E3A2852685AD2A51CDFD547C50DF
:10111000858B99E75E2493F7072099E3284C992D56
:10112000F24062444249B249224A2685D2440561CE
:10113000828000455DB72685C92145B79717000015
:10114000938787B96314F400804479BF9717000030
:10115000938787B6E31AF4F8C04479B71CC405092D
:1011600063C807021C401387170018C08CA31C44D7
:1011700083450900FD17FDF11CC463D907022286CF
:10118000A94526858920FD57E302F5F8A94441B712
:10119000184C63C4E700E39745FD22862685252089
:1011A000E31735FDA5B7FD59294AD1B71C40138770
:1011B000170018C0294798A3D1BFAA85170500209A
:1011C0000325859ACDBD011122CC26CA4AC806CE78
:1011D0004EC6AA842E89328401C51C4D91E3312963
:1011E00097170000938747B16317F402C0401C4C67
:1011F0001CC45E24A18B99C31C4895EFA28526854B
:10120000492015C97D59F2406244D244B2494A8509
:10121000424905618280971700009387E7AB63140A
:10122000F4008044E9B7971700009387E7A8E3101C
:10123000F4FCC0446DBF1C4808409379F90F137942
:10124000F90F1D8D5C486346F500A2852685A12C0B
:1012500055F91C440505FD171CC41C4013871700D5
:1012600018C0238037015C486388A7005E24858B03
:10127000D9DBA947E319F9F8A28526852D2441D5A4
:1012800051B7411122C426C24AC006C697040020A5
:1012900083A4848D2A892E8489C49C4C99E3268555
:1012A000A92E97170000938727A56313F402C04067
:1012B0008317C40013F7870025E713F707010DEB29
:1012C00025472320E90093E707045EA47D5571A01C
:1012D00097170000938747A06314F4008044C9BFA8
:1012E000971700009387479DE314F4FCC044C9B7E7
:1012F000918B9DC34C5889C9930744046384F500BE
:101300004A85B92B232A04025E242322040093F782
:10131000B7FD5EA41C481CC05E2493E787005EA452
:101320001C4899EB5E241307002093F70728638578
:10133000E700A2854A8561298317C40013F71700C7
:101340001DC35848232404003307E04018CC184834
:10135000014501E713F707083DF7B24022449244E4
:1013600002494101828013F72700814611E3544866
:1013700014C4F1BF8397C500011122CC26CA06CE42
:101380004AC84EC613F78700AA842E8479E3D84151
:101390006345E000B8416356E008585459C303A9B7
:1013A000040023A004000C5093D7C748A9CB704871
:1013B0005E24918B99C75C401D8E5C5899C33C405C
:1013C0001D8E5C540C50814626858297FD57630C18
:1013D000F5041C480567232204001CC05E24F98F15
:1013E00091C368C84C5823A0240185CD93074404B9
:1013F0006384F5002685AD21232A04021DA0014641
:10140000854626850297FD572A86E313F5FA9C4008
:10141000C5D375476385E70059476395E70623A061
:1014200024010145B5A098408317C40001CFF546BB
:101430006305D700D9466319D7041C48232204004A
:101440001CC04DB718482322040093D7C74818C0C2
:1014500041BF83A90501E38609FC03A905008D8B23
:1014600023A0350133093941014791E3D84918C414
:10147000E35920FB1C540C50CA864E862685829761
:10148000634FA0008317C40093E707045EA47D5553
:10149000F2406244D2444249B24905618280AA992D
:1014A0003309A940F1B79C49411106C622C426C29E
:1014B00081EB8144B24022442685924441018280DE
:1014C000AA842E8401C51C4D91E3052A97170000BC
:1014D00093878782631CF402C0408317C400F1DB4A
:1014E0007850058B11E793F7072099E3284C512496
:1014F0002685A28541357C50AA84858BC5FF5E2454
:1015000093F70720C5FB284CB5246DB7970700005B
:101510009387877C6314F4008044C1B79707000069
:1015200093878779E31BF4FAC04445BF411122C475
:1015300006C62A844EA572A5232005002322050095
:10154000232405002322050623280500232A05005D
:10155000232C0500214681451305C505EFF06FE5F5
:10156000970700009387C7515CD0970700009387C7
:10157000C7531CD497070000938787575CD49707FD
:1015800000009387C759B24000D01CD822444101C3
:10159000828097050000938545F1BDA2411126C2C6
:1015A000930780069384F5FFB384F4024AC02E8922
:1015B00022C406C693854407692E2A8401CD2320C0
:1015C000050023222501310508C4138684068145C0
:1015D000EFF02FDEB24022852244924402494101BD
:1015E00082801385018171A21385018161A2138517
:1015F000418141A213854181B5AA411122C406C689
:101600002A84F5371C4C89C72244B2404101DDB71A
:1016100097070000938727F81CD42324040423266B
:1016200004042328040483A78180639487008547EA
:101630001CCC22853D2048C02285252008C4228557
:101640000D2048C4484001469145CD350844054623
:10165000A545E93D48440946C945C93D85471CCCD7
:1016600065B7411126C24AC006C622C42A89953FE1
:1016700083A481809C4C99E326854137938484041C
:101680008044DC40FD1763D607009C40BDC3844006
:10169000C5BF0317C40039EBC17785075CC41305C8
:1016A000840523220406E9208137214623200400F3
:1016B000232404002322040023280400232A0400F6
:1016C000232C040081451305C405EFF08FCE232A97
:1016D0000402232C04022324040423260404B2401D
:1016E00022852244924402494101828013048406E7
:1016F00051BF91454A855D3588C02A8449F9ED3549
:10170000B1472320F900E1BF797122D44AD04ECEEF
:1017100052CC5AC85EC606D626D256CA2A892E8A06
:10172000130485048149054BFD5B0444832A44006E
:10173000FD1A63D00A0200406DF8B2502254925450
:101740000259624AD24A424BB24B4E85F249456138
:101750008280DE24637BFB008397E400638777014C
:10176000A6854A85029AB3E9A90093848406C9B77D
:101770008280828082805971A2D42E848395E50074
:10178000A6D2CAD086D6B284368963D205025E2438
:1017900093F707088DEB13070040B650265423201B
:1017A000F90098C006599654014565618280300061
:1017B000C926E34E05FC3247BD67F98F7977BA97A2
:1017C00093B71700C9BF814713070004F9B7DE2597
:1017D000797122D406D626D24AD04ECE898B2E8459
:1017E00091CF930774041CC01CC885475CC8B250D5
:1017F000225492540259F2494561828074003000AB
:10180000AA84953FA2492A892685CE85992219E97D
:101810008317C40013F7072079FBF19B93E7270098
:101820005EA4C1B7970700009387E7D69CD45E24D7
:1018300008C008C893E707085EA4B247232A34010A
:1018400099CB8315E4002685892E11C55E24F19B72
:1018500093E717005EA45E2433E527014AA441BF45
:10186000D1CD83A7C5FF011122CC06CE1384C5FFBD
:1018700063D307003E942AC68D2E1387C1811C4373
:10188000324581EB2322040000C36244F24005612B
:1018900085A6637DF4001040B306C4006396D700AC
:1018A0009443DC43B29614C05CC0F9BF3E87DC436E
:1018B00099C3E37DF4FE14433306D700631F86000B
:1018C0001040B29614C33306D700E390C7FC904390
:1018D000DC43B29614C35CC34DBF6375C400B1470B
:1018E0001CC165B71040B306C4006396D70094438B
:1018F000DC43B29614C05CC040C341BF828041113A
:101900004AC0138981818327090022C426C206C6E2
:10191000AA842E8489E78145352A2320A900A2853F
:1019200026850D2A7D59631A25017D54B2402285F2
:101930002244924402494101828013043500719887
:10194000E30685FEB305A44026852922E31025FF82
:10195000E9BF011126CA93843500F1984AC8A10451
:10196000B14706CE22CC4EC62A89B3F4F40A63C42A
:10197000040063FDB400B1472320F9000145F240A3
:101980006244D2444249B24905618280B92C9389AC
:10199000C18183A709003E8431E4A6854A85853745
:1019A000FD572A846316F50A03A40900A287C1EB38
:1019B0008329040081454A85A29969286394A9086E
:1019C0001C408D044A859D8CF198B147A104B3F465
:1019D000F40AA6852D37FD576306F5061C40A69729
:1019E0001CC015A01440858E63C806042D47637D76
:1019F000D70204C0330794006396870223A0E9004E
:101A00005C4014C35CC34A85E5221305B400930708
:101A1000440061993307F540E303F5F63A94898F62
:101A20001CC0B1BFD8C3E9BF58406395870023A04D
:101A3000E900D1BFD8C3C1BFA2874040B1BF3E8437
:101A4000DC43B5B7B1472320F9004A8555223DB79D
:101A500004C155BF411122C42A842E8523A00182CE
:101A600006C6EFF06FCFFD576316F50083A701821E
:101A700091C31CC0B240224441018280411122C462
:101A80002E848395E50006C6BD22634905007C4887
:101A9000AA977CC8B2402244410182805E24939779
:101AA000C7485EA4C5BFDE25011122CC26CA4AC89C
:101AB0004EC606CE93F70710AA842E843289B689C3
:101AC00091C78395E50089460146DD285E2483158C
:101AD000E400F2409397C7485EA46244CE864A86EB
:101AE000B24942492685D24405611DA8411122C44C
:101AF0002E848395E50006C6E1207D575E24631998
:101B0000E5009397C7485EA4B24022444101828019
:101B10009397C72868C85EA4C5BF8395E5003DA01C
:101B2000411122C42A842E85B285368623A00182E3
:101B300006C6EFF00FC0FD576316F50083A70182BC
:101B400091C31CC0B240224441018280411122C491
:101B50002A842E8523A0018206C6D920FD5763164C
:101B6000F50083A7018291C31CC0B2402244410109
:101B70008280411122C42A842E85B28523A001824D
:101B800006C66D20FD576316F50083A7018291C339
:101B90001CC0B240224441018280411122C42A84E7
:101BA0002E8523A0018206C64128FD576316F50045
:101BB00083A7018291C31CC0B240224441018280AC
:101BC000411122C42A842E85B285368623A0018243
:101BD00006C68D28FD576316F50083A7018291C3C1
:101BE0001CC0B2402244410182801385C18051B69D
:101BF0001385C18041B6411122C42A842E85B28545
:101C0000368623A0018206C6A120FD576316F50083
:101C100083A7018291C31CC0B2402244410182804B
:101C20009307800523A0F1827D558280930780056C
:101C300023A0F1827D5582809307800523A0F18245
:101C4000014582809307800523A0F1827D55828023
:101C50009307800523A0F1827D55828049444C453D
:101C6000206D6F646520736C656570200000000056
:101C700048616C74206D6F646520736C65657020BD
:101C800000000000736C656570206D6F64652073E3
:101C90006C6565702000000077616B652E2E20005A
:101CA000D6F0FFFFEEF0FFFF12F1FFFF1CF1FFFF88
:101CB00032F1FFFF00000000000000000000000003
:101CC0000000000000000000000000000000000014
:101CD0000000000000000000000000000000000004
:101CE00000000000000000000000000000000000F4
:101CF00000000000000000000000000000000000E4
:101D000000000000000000000000000000000000D3
:041D100000000000CF
:021D140001A02C
:101D180000000000F41C0000D41C0000B41C0000EB
:101D280000000000000000000000000000000000AB
:101D3800000000000000000000000000000000009B
:101D4800000000000000000000000000000000008B
:101D5800000000000000000000000000000000007B
:101D6800000000000000000000000000000000006B
:101D780000000000840B0020FC0A0020FC0A002060
:00000001FF
